{
  "contractName": "LazyNFT",
  "abi": [
    {
      "inputs": [
        {
          "internalType": "address payable",
          "name": "minter",
          "type": "address"
        }
      ],
      "stateMutability": "nonpayable",
      "type": "constructor"
    },
    {
      "anonymous": false,
      "inputs": [
        {
          "indexed": true,
          "internalType": "address",
          "name": "owner",
          "type": "address"
        },
        {
          "indexed": true,
          "internalType": "address",
          "name": "approved",
          "type": "address"
        },
        {
          "indexed": true,
          "internalType": "uint256",
          "name": "tokenId",
          "type": "uint256"
        }
      ],
      "name": "Approval",
      "type": "event"
    },
    {
      "anonymous": false,
      "inputs": [
        {
          "indexed": true,
          "internalType": "address",
          "name": "owner",
          "type": "address"
        },
        {
          "indexed": true,
          "internalType": "address",
          "name": "operator",
          "type": "address"
        },
        {
          "indexed": false,
          "internalType": "bool",
          "name": "approved",
          "type": "bool"
        }
      ],
      "name": "ApprovalForAll",
      "type": "event"
    },
    {
      "anonymous": false,
      "inputs": [
        {
          "indexed": true,
          "internalType": "bytes32",
          "name": "role",
          "type": "bytes32"
        },
        {
          "indexed": true,
          "internalType": "bytes32",
          "name": "previousAdminRole",
          "type": "bytes32"
        },
        {
          "indexed": true,
          "internalType": "bytes32",
          "name": "newAdminRole",
          "type": "bytes32"
        }
      ],
      "name": "RoleAdminChanged",
      "type": "event"
    },
    {
      "anonymous": false,
      "inputs": [
        {
          "indexed": true,
          "internalType": "bytes32",
          "name": "role",
          "type": "bytes32"
        },
        {
          "indexed": true,
          "internalType": "address",
          "name": "account",
          "type": "address"
        },
        {
          "indexed": true,
          "internalType": "address",
          "name": "sender",
          "type": "address"
        }
      ],
      "name": "RoleGranted",
      "type": "event"
    },
    {
      "anonymous": false,
      "inputs": [
        {
          "indexed": true,
          "internalType": "bytes32",
          "name": "role",
          "type": "bytes32"
        },
        {
          "indexed": true,
          "internalType": "address",
          "name": "account",
          "type": "address"
        },
        {
          "indexed": true,
          "internalType": "address",
          "name": "sender",
          "type": "address"
        }
      ],
      "name": "RoleRevoked",
      "type": "event"
    },
    {
      "anonymous": false,
      "inputs": [
        {
          "indexed": true,
          "internalType": "address",
          "name": "from",
          "type": "address"
        },
        {
          "indexed": true,
          "internalType": "address",
          "name": "to",
          "type": "address"
        },
        {
          "indexed": true,
          "internalType": "uint256",
          "name": "tokenId",
          "type": "uint256"
        }
      ],
      "name": "Transfer",
      "type": "event"
    },
    {
      "inputs": [],
      "name": "DEFAULT_ADMIN_ROLE",
      "outputs": [
        {
          "internalType": "bytes32",
          "name": "",
          "type": "bytes32"
        }
      ],
      "stateMutability": "view",
      "type": "function"
    },
    {
      "inputs": [],
      "name": "MINTER_ROLE",
      "outputs": [
        {
          "internalType": "bytes32",
          "name": "",
          "type": "bytes32"
        }
      ],
      "stateMutability": "view",
      "type": "function"
    },
    {
      "inputs": [
        {
          "internalType": "address",
          "name": "to",
          "type": "address"
        },
        {
          "internalType": "uint256",
          "name": "tokenId",
          "type": "uint256"
        }
      ],
      "name": "approve",
      "outputs": [],
      "stateMutability": "nonpayable",
      "type": "function"
    },
    {
      "inputs": [
        {
          "internalType": "address",
          "name": "owner",
          "type": "address"
        }
      ],
      "name": "balanceOf",
      "outputs": [
        {
          "internalType": "uint256",
          "name": "",
          "type": "uint256"
        }
      ],
      "stateMutability": "view",
      "type": "function"
    },
    {
      "inputs": [
        {
          "internalType": "uint256",
          "name": "tokenId",
          "type": "uint256"
        }
      ],
      "name": "getApproved",
      "outputs": [
        {
          "internalType": "address",
          "name": "",
          "type": "address"
        }
      ],
      "stateMutability": "view",
      "type": "function"
    },
    {
      "inputs": [
        {
          "internalType": "bytes32",
          "name": "role",
          "type": "bytes32"
        }
      ],
      "name": "getRoleAdmin",
      "outputs": [
        {
          "internalType": "bytes32",
          "name": "",
          "type": "bytes32"
        }
      ],
      "stateMutability": "view",
      "type": "function"
    },
    {
      "inputs": [
        {
          "internalType": "bytes32",
          "name": "role",
          "type": "bytes32"
        },
        {
          "internalType": "address",
          "name": "account",
          "type": "address"
        }
      ],
      "name": "grantRole",
      "outputs": [],
      "stateMutability": "nonpayable",
      "type": "function"
    },
    {
      "inputs": [
        {
          "internalType": "bytes32",
          "name": "role",
          "type": "bytes32"
        },
        {
          "internalType": "address",
          "name": "account",
          "type": "address"
        }
      ],
      "name": "hasRole",
      "outputs": [
        {
          "internalType": "bool",
          "name": "",
          "type": "bool"
        }
      ],
      "stateMutability": "view",
      "type": "function"
    },
    {
      "inputs": [
        {
          "internalType": "address",
          "name": "owner",
          "type": "address"
        },
        {
          "internalType": "address",
          "name": "operator",
          "type": "address"
        }
      ],
      "name": "isApprovedForAll",
      "outputs": [
        {
          "internalType": "bool",
          "name": "",
          "type": "bool"
        }
      ],
      "stateMutability": "view",
      "type": "function"
    },
    {
      "inputs": [],
      "name": "name",
      "outputs": [
        {
          "internalType": "string",
          "name": "",
          "type": "string"
        }
      ],
      "stateMutability": "view",
      "type": "function"
    },
    {
      "inputs": [
        {
          "internalType": "uint256",
          "name": "tokenId",
          "type": "uint256"
        }
      ],
      "name": "ownerOf",
      "outputs": [
        {
          "internalType": "address",
          "name": "",
          "type": "address"
        }
      ],
      "stateMutability": "view",
      "type": "function"
    },
    {
      "inputs": [
        {
          "internalType": "bytes32",
          "name": "role",
          "type": "bytes32"
        },
        {
          "internalType": "address",
          "name": "account",
          "type": "address"
        }
      ],
      "name": "renounceRole",
      "outputs": [],
      "stateMutability": "nonpayable",
      "type": "function"
    },
    {
      "inputs": [
        {
          "internalType": "bytes32",
          "name": "role",
          "type": "bytes32"
        },
        {
          "internalType": "address",
          "name": "account",
          "type": "address"
        }
      ],
      "name": "revokeRole",
      "outputs": [],
      "stateMutability": "nonpayable",
      "type": "function"
    },
    {
      "inputs": [
        {
          "internalType": "address",
          "name": "from",
          "type": "address"
        },
        {
          "internalType": "address",
          "name": "to",
          "type": "address"
        },
        {
          "internalType": "uint256",
          "name": "tokenId",
          "type": "uint256"
        }
      ],
      "name": "safeTransferFrom",
      "outputs": [],
      "stateMutability": "nonpayable",
      "type": "function"
    },
    {
      "inputs": [
        {
          "internalType": "address",
          "name": "from",
          "type": "address"
        },
        {
          "internalType": "address",
          "name": "to",
          "type": "address"
        },
        {
          "internalType": "uint256",
          "name": "tokenId",
          "type": "uint256"
        },
        {
          "internalType": "bytes",
          "name": "data",
          "type": "bytes"
        }
      ],
      "name": "safeTransferFrom",
      "outputs": [],
      "stateMutability": "nonpayable",
      "type": "function"
    },
    {
      "inputs": [
        {
          "internalType": "address",
          "name": "operator",
          "type": "address"
        },
        {
          "internalType": "bool",
          "name": "approved",
          "type": "bool"
        }
      ],
      "name": "setApprovalForAll",
      "outputs": [],
      "stateMutability": "nonpayable",
      "type": "function"
    },
    {
      "inputs": [],
      "name": "symbol",
      "outputs": [
        {
          "internalType": "string",
          "name": "",
          "type": "string"
        }
      ],
      "stateMutability": "view",
      "type": "function"
    },
    {
      "inputs": [
        {
          "internalType": "uint256",
          "name": "tokenId",
          "type": "uint256"
        }
      ],
      "name": "tokenURI",
      "outputs": [
        {
          "internalType": "string",
          "name": "",
          "type": "string"
        }
      ],
      "stateMutability": "view",
      "type": "function"
    },
    {
      "inputs": [
        {
          "internalType": "address",
          "name": "from",
          "type": "address"
        },
        {
          "internalType": "address",
          "name": "to",
          "type": "address"
        },
        {
          "internalType": "uint256",
          "name": "tokenId",
          "type": "uint256"
        }
      ],
      "name": "transferFrom",
      "outputs": [],
      "stateMutability": "nonpayable",
      "type": "function"
    },
    {
      "inputs": [
        {
          "internalType": "address",
          "name": "redeemer",
          "type": "address"
        },
        {
          "components": [
            {
              "internalType": "uint256",
              "name": "tokenId",
              "type": "uint256"
            },
            {
              "internalType": "uint256",
              "name": "minPrice",
              "type": "uint256"
            },
            {
              "internalType": "string",
              "name": "uri",
              "type": "string"
            },
            {
              "internalType": "bytes",
              "name": "signature",
              "type": "bytes"
            }
          ],
          "internalType": "struct LazyNFT.NFTVoucher",
          "name": "voucher",
          "type": "tuple"
        }
      ],
      "name": "redeem",
      "outputs": [
        {
          "internalType": "uint256",
          "name": "",
          "type": "uint256"
        }
      ],
      "stateMutability": "payable",
      "type": "function"
    },
    {
      "inputs": [],
      "name": "withdraw",
      "outputs": [],
      "stateMutability": "nonpayable",
      "type": "function"
    },
    {
      "inputs": [],
      "name": "availableToWithdraw",
      "outputs": [
        {
          "internalType": "uint256",
          "name": "",
          "type": "uint256"
        }
      ],
      "stateMutability": "view",
      "type": "function"
    },
    {
      "inputs": [],
      "name": "getChainID",
      "outputs": [
        {
          "internalType": "uint256",
          "name": "",
          "type": "uint256"
        }
      ],
      "stateMutability": "view",
      "type": "function"
    },
    {
      "inputs": [
        {
          "internalType": "bytes4",
          "name": "interfaceId",
          "type": "bytes4"
        }
      ],
      "name": "supportsInterface",
      "outputs": [
        {
          "internalType": "bool",
          "name": "",
          "type": "bool"
        }
      ],
      "stateMutability": "view",
      "type": "function"
    }
  ],
  "bytecode": "0x6101406040523480156200001257600080fd5b5060405162004e5b38038062004e5b833981810160405281019062000038919062000442565b6040518060400160405280600f81526020017f4c617a794e46542d566f756368657200000000000000000000000000000000008152506040518060400160405280600181526020017f31000000000000000000000000000000000000000000000000000000000000008152506040518060400160405280600781526020017f4c617a794e4654000000000000000000000000000000000000000000000000008152506040518060400160405280600381526020017f4c415a00000000000000000000000000000000000000000000000000000000008152508160009081620001219190620006ee565b508060019081620001339190620006ee565b50505060008280519060200120905060008280519060200120905060007f8b73c3c69bb8fe3d512ecc4cf759cc79239f7b179b0ffacaa9a75d522b39400f90508260e081815250508161010081815250504660a081815250506200019f8184846200022160201b60201c565b608081815250503073ffffffffffffffffffffffffffffffffffffffff1660c08173ffffffffffffffffffffffffffffffffffffffff168152505080610120818152505050505050506200021a7f9f2df0fed2c77648de5860a4cc508cd0818c85b8b8a1ab4ceeef8d981c8956a6826200025d60201b60201c565b5062000883565b600083838346306040516020016200023e95949392919062000826565b6040516020818303038152906040528051906020012090509392505050565b6200026f82826200027360201b60201c565b5050565b6200028582826200036560201b60201c565b620003615760016007600084815260200190815260200160002060000160008373ffffffffffffffffffffffffffffffffffffffff1673ffffffffffffffffffffffffffffffffffffffff16815260200190815260200160002060006101000a81548160ff02191690831515021790555062000306620003d060201b60201c565b73ffffffffffffffffffffffffffffffffffffffff168173ffffffffffffffffffffffffffffffffffffffff16837f2f8788117e7eff1d82e926ec794901d17c78024a50270940304540a733656f0d60405160405180910390a45b5050565b60006007600084815260200190815260200160002060000160008373ffffffffffffffffffffffffffffffffffffffff1673ffffffffffffffffffffffffffffffffffffffff16815260200190815260200160002060009054906101000a900460ff16905092915050565b600033905090565b600080fd5b600073ffffffffffffffffffffffffffffffffffffffff82169050919050565b60006200040a82620003dd565b9050919050565b6200041c81620003fd565b81146200042857600080fd5b50565b6000815190506200043c8162000411565b92915050565b6000602082840312156200045b576200045a620003d8565b5b60006200046b848285016200042b565b91505092915050565b600081519050919050565b7f4e487b7100000000000000000000000000000000000000000000000000000000600052604160045260246000fd5b7f4e487b7100000000000000000000000000000000000000000000000000000000600052602260045260246000fd5b60006002820490506001821680620004f657607f821691505b6020821081036200050c576200050b620004ae565b5b50919050565b60008190508160005260206000209050919050565b60006020601f8301049050919050565b600082821b905092915050565b600060088302620005767fffffffffffffffffffffffffffffffffffffffffffffffffffffffffffffffff8262000537565b62000582868362000537565b95508019841693508086168417925050509392505050565b6000819050919050565b6000819050919050565b6000620005cf620005c9620005c3846200059a565b620005a4565b6200059a565b9050919050565b6000819050919050565b620005eb83620005ae565b62000603620005fa82620005d6565b84845462000544565b825550505050565b600090565b6200061a6200060b565b62000627818484620005e0565b505050565b5b818110156200064f576200064360008262000610565b6001810190506200062d565b5050565b601f8211156200069e57620006688162000512565b620006738462000527565b8101602085101562000683578190505b6200069b620006928562000527565b8301826200062c565b50505b505050565b600082821c905092915050565b6000620006c360001984600802620006a3565b1980831691505092915050565b6000620006de8383620006b0565b9150826002028217905092915050565b620006f98262000474565b67ffffffffffffffff8111156200071557620007146200047f565b5b620007218254620004dd565b6200072e82828562000653565b600060209050601f83116001811462000766576000841562000751578287015190505b6200075d8582620006d0565b865550620007cd565b601f198416620007768662000512565b60005b82811015620007a05784890151825560018201915060208501945060208101905062000779565b86831015620007c05784890151620007bc601f891682620006b0565b8355505b6001600288020188555050505b505050505050565b6000819050919050565b620007ea81620007d5565b82525050565b620007fb816200059a565b82525050565b60006200080e82620003dd565b9050919050565b620008208162000801565b82525050565b600060a0820190506200083d6000830188620007df565b6200084c6020830187620007df565b6200085b6040830186620007df565b6200086a6060830185620007f0565b62000879608083018462000815565b9695505050505050565b60805160a05160c05160e0516101005161012051614588620008d360003960006127b5015260006127f7015260006127d60152600061270b015260006127610152600061278a01526145886000f3fe60806040526004361061014b5760003560e01c80636352211e116100b6578063b88d4fde1161006f578063b88d4fde146104a7578063c87b56dd146104d0578063d53913931461050d578063d547741f14610538578063e322ad2b14610561578063e985e9c51461058c5761014b565b80636352211e1461037157806370a08231146103ae57806391d14854146103eb57806395d89b4114610428578063a217fddf14610453578063a22cb4651461047e5761014b565b8063248a9ca311610108578063248a9ca3146102775780632f2ff15d146102b457806336568abe146102dd5780633ccfd60b1461030657806342842e0e1461031d578063564b81ef146103465761014b565b806301ffc9a71461015057806306fdde031461018d578063081812fc146101b857806308708a78146101f5578063095ea7b31461022557806323b872dd1461024e575b600080fd5b34801561015c57600080fd5b5061017760048036038101906101729190612a06565b6105c9565b6040516101849190612a4e565b60405180910390f35b34801561019957600080fd5b506101a26105eb565b6040516101af9190612af9565b60405180910390f35b3480156101c457600080fd5b506101df60048036038101906101da9190612b51565b61067d565b6040516101ec9190612bbf565b60405180910390f35b61020f600480360381019061020a9190612c2a565b6106c3565b60405161021c9190612c95565b60405180910390f35b34801561023157600080fd5b5061024c60048036038101906102479190612cb0565b610862565b005b34801561025a57600080fd5b5061027560048036038101906102709190612cf0565b610979565b005b34801561028357600080fd5b5061029e60048036038101906102999190612d79565b6109d9565b6040516102ab9190612db5565b60405180910390f35b3480156102c057600080fd5b506102db60048036038101906102d69190612dd0565b6109f9565b005b3480156102e957600080fd5b5061030460048036038101906102ff9190612dd0565b610a1a565b005b34801561031257600080fd5b5061031b610a9d565b005b34801561032957600080fd5b50610344600480360381019061033f9190612cf0565b610bdf565b005b34801561035257600080fd5b5061035b610bff565b6040516103689190612c95565b60405180910390f35b34801561037d57600080fd5b5061039860048036038101906103939190612b51565b610c0c565b6040516103a59190612bbf565b60405180910390f35b3480156103ba57600080fd5b506103d560048036038101906103d09190612e10565b610cbd565b6040516103e29190612c95565b60405180910390f35b3480156103f757600080fd5b50610412600480360381019061040d9190612dd0565b610d74565b60405161041f9190612a4e565b60405180910390f35b34801561043457600080fd5b5061043d610ddf565b60405161044a9190612af9565b60405180910390f35b34801561045f57600080fd5b50610468610e71565b6040516104759190612db5565b60405180910390f35b34801561048a57600080fd5b506104a560048036038101906104a09190612e69565b610e78565b005b3480156104b357600080fd5b506104ce60048036038101906104c99190612fde565b610e8e565b005b3480156104dc57600080fd5b506104f760048036038101906104f29190612b51565b610ef0565b6040516105049190612af9565b60405180910390f35b34801561051957600080fd5b50610522611002565b60405161052f9190612db5565b60405180910390f35b34801561054457600080fd5b5061055f600480360381019061055a9190612dd0565b611026565b005b34801561056d57600080fd5b50610576611047565b6040516105839190612c95565b60405180910390f35b34801561059857600080fd5b506105b360048036038101906105ae9190613061565b61108e565b6040516105c09190612a4e565b60405180910390f35b60006105d482611122565b806105e457506105e382611204565b5b9050919050565b6060600080546105fa906130d0565b80601f0160208091040260200160405190810160405280929190818152602001828054610626906130d0565b80156106735780601f1061064857610100808354040283529160200191610673565b820191906000526020600020905b81548152906001019060200180831161065657829003601f168201915b5050505050905090565b60006106888261127e565b6004600083815260200190815260200160002060009054906101000a900473ffffffffffffffffffffffffffffffffffffffff169050919050565b6000806106cf836112c9565b90506106fb7f9f2df0fed2c77648de5860a4cc508cd0818c85b8b8a1ab4ceeef8d981c8956a682610d74565b61073a576040517f08c379a000000000000000000000000000000000000000000000000000000000815260040161073190613173565b60405180910390fd5b8260200135341015610781576040517f08c379a0000000000000000000000000000000000000000000000000000000008152600401610778906131df565b60405180910390fd5b61078f81846000013561133b565b6107ef83600001358480604001906107a7919061320e565b8080601f016020809104026020016040519081016040528093929190818152602001838380828437600081840152601f19601f82011690508083019250505050505050611514565b6107fe81858560000135611581565b34600860008373ffffffffffffffffffffffffffffffffffffffff1673ffffffffffffffffffffffffffffffffffffffff168152602001908152602001600020600082825461084d91906132a0565b92505081905550826000013591505092915050565b600061086d82610c0c565b90508073ffffffffffffffffffffffffffffffffffffffff168373ffffffffffffffffffffffffffffffffffffffff16036108dd576040517f08c379a00000000000000000000000000000000000000000000000000000000081526004016108d490613346565b60405180910390fd5b8073ffffffffffffffffffffffffffffffffffffffff166108fc6117e7565b73ffffffffffffffffffffffffffffffffffffffff16148061092b575061092a816109256117e7565b61108e565b5b61096a576040517f08c379a0000000000000000000000000000000000000000000000000000000008152600401610961906133d8565b60405180910390fd5b61097483836117ef565b505050565b61098a6109846117e7565b826118a8565b6109c9576040517f08c379a00000000000000000000000000000000000000000000000000000000081526004016109c09061346a565b60405180910390fd5b6109d4838383611581565b505050565b600060076000838152602001908152602001600020600101549050919050565b610a02826109d9565b610a0b8161193d565b610a158383611951565b505050565b610a226117e7565b73ffffffffffffffffffffffffffffffffffffffff168173ffffffffffffffffffffffffffffffffffffffff1614610a8f576040517f08c379a0000000000000000000000000000000000000000000000000000000008152600401610a86906134fc565b60405180910390fd5b610a998282611a32565b5050565b610ac77f9f2df0fed2c77648de5860a4cc508cd0818c85b8b8a1ab4ceeef8d981c8956a633610d74565b610b06576040517f08c379a0000000000000000000000000000000000000000000000000000000008152600401610afd9061358e565b60405180910390fd5b60003390506000600860008373ffffffffffffffffffffffffffffffffffffffff1673ffffffffffffffffffffffffffffffffffffffff1681526020019081526020016000205490506000600860008473ffffffffffffffffffffffffffffffffffffffff1673ffffffffffffffffffffffffffffffffffffffff168152602001908152602001600020819055508173ffffffffffffffffffffffffffffffffffffffff166108fc829081150290604051600060405180830381858888f19350505050158015610bda573d6000803e3d6000fd5b505050565b610bfa83838360405180602001604052806000815250610e8e565b505050565b6000804690508091505090565b6000806002600084815260200190815260200160002060009054906101000a900473ffffffffffffffffffffffffffffffffffffffff169050600073ffffffffffffffffffffffffffffffffffffffff168173ffffffffffffffffffffffffffffffffffffffff1603610cb4576040517f08c379a0000000000000000000000000000000000000000000000000000000008152600401610cab906135fa565b60405180910390fd5b80915050919050565b60008073ffffffffffffffffffffffffffffffffffffffff168273ffffffffffffffffffffffffffffffffffffffff1603610d2d576040517f08c379a0000000000000000000000000000000000000000000000000000000008152600401610d249061368c565b60405180910390fd5b600360008373ffffffffffffffffffffffffffffffffffffffff1673ffffffffffffffffffffffffffffffffffffffff168152602001908152602001600020549050919050565b60006007600084815260200190815260200160002060000160008373ffffffffffffffffffffffffffffffffffffffff1673ffffffffffffffffffffffffffffffffffffffff16815260200190815260200160002060009054906101000a900460ff16905092915050565b606060018054610dee906130d0565b80601f0160208091040260200160405190810160405280929190818152602001828054610e1a906130d0565b8015610e675780601f10610e3c57610100808354040283529160200191610e67565b820191906000526020600020905b815481529060010190602001808311610e4a57829003601f168201915b5050505050905090565b6000801b81565b610e8a610e836117e7565b8383611b14565b5050565b610e9f610e996117e7565b836118a8565b610ede576040517f08c379a0000000000000000000000000000000000000000000000000000000008152600401610ed59061346a565b60405180910390fd5b610eea84848484611c80565b50505050565b6060610efb8261127e565b6000600660008481526020019081526020016000208054610f1b906130d0565b80601f0160208091040260200160405190810160405280929190818152602001828054610f47906130d0565b8015610f945780601f10610f6957610100808354040283529160200191610f94565b820191906000526020600020905b815481529060010190602001808311610f7757829003601f168201915b505050505090506000610fa5611cdc565b90506000815103610fba578192505050610ffd565b600082511115610fef578082604051602001610fd79291906136e8565b60405160208183030381529060405292505050610ffd565b610ff884611cf3565b925050505b919050565b7f9f2df0fed2c77648de5860a4cc508cd0818c85b8b8a1ab4ceeef8d981c8956a681565b61102f826109d9565b6110388161193d565b6110428383611a32565b505050565b6000600860003373ffffffffffffffffffffffffffffffffffffffff1673ffffffffffffffffffffffffffffffffffffffff16815260200190815260200160002054905090565b6000600560008473ffffffffffffffffffffffffffffffffffffffff1673ffffffffffffffffffffffffffffffffffffffff16815260200190815260200160002060008373ffffffffffffffffffffffffffffffffffffffff1673ffffffffffffffffffffffffffffffffffffffff16815260200190815260200160002060009054906101000a900460ff16905092915050565b60007f80ac58cd000000000000000000000000000000000000000000000000000000007bffffffffffffffffffffffffffffffffffffffffffffffffffffffff1916827bffffffffffffffffffffffffffffffffffffffffffffffffffffffff191614806111ed57507f5b5e139f000000000000000000000000000000000000000000000000000000007bffffffffffffffffffffffffffffffffffffffffffffffffffffffff1916827bffffffffffffffffffffffffffffffffffffffffffffffffffffffff1916145b806111fd57506111fc82611d5b565b5b9050919050565b60007f7965db0b000000000000000000000000000000000000000000000000000000007bffffffffffffffffffffffffffffffffffffffffffffffffffffffff1916827bffffffffffffffffffffffffffffffffffffffffffffffffffffffff19161480611277575061127682611122565b5b9050919050565b61128781611dc5565b6112c6576040517f08c379a00000000000000000000000000000000000000000000000000000000081526004016112bd906135fa565b60405180910390fd5b50565b6000806112d583611e31565b9050611333818480606001906112eb919061370c565b8080601f016020809104026020016040519081016040528093929190818152602001838380828437600081840152601f19601f82011690508083019250505050505050611ebc565b915050919050565b600073ffffffffffffffffffffffffffffffffffffffff168273ffffffffffffffffffffffffffffffffffffffff16036113aa576040517f08c379a00000000000000000000000000000000000000000000000000000000081526004016113a1906137bb565b60405180910390fd5b6113b381611dc5565b156113f3576040517f08c379a00000000000000000000000000000000000000000000000000000000081526004016113ea90613827565b60405180910390fd5b6113ff60008383611ee3565b6001600360008473ffffffffffffffffffffffffffffffffffffffff1673ffffffffffffffffffffffffffffffffffffffff168152602001908152602001600020600082825461144f91906132a0565b92505081905550816002600083815260200190815260200160002060006101000a81548173ffffffffffffffffffffffffffffffffffffffff021916908373ffffffffffffffffffffffffffffffffffffffff160217905550808273ffffffffffffffffffffffffffffffffffffffff16600073ffffffffffffffffffffffffffffffffffffffff167fddf252ad1be2c89b69c2b068fc378daa952ba7f163c4a11628f55a4df523b3ef60405160405180910390a461151060008383611ee8565b5050565b61151d82611dc5565b61155c576040517f08c379a0000000000000000000000000000000000000000000000000000000008152600401611553906138b9565b60405180910390fd5b8060066000848152602001908152602001600020908161157c9190613a85565b505050565b8273ffffffffffffffffffffffffffffffffffffffff166115a182610c0c565b73ffffffffffffffffffffffffffffffffffffffff16146115f7576040517f08c379a00000000000000000000000000000000000000000000000000000000081526004016115ee90613bc9565b60405180910390fd5b600073ffffffffffffffffffffffffffffffffffffffff168273ffffffffffffffffffffffffffffffffffffffff1603611666576040517f08c379a000000000000000000000000000000000000000000000000000000000815260040161165d90613c5b565b60405180910390fd5b611671838383611ee3565b61167c6000826117ef565b6001600360008573ffffffffffffffffffffffffffffffffffffffff1673ffffffffffffffffffffffffffffffffffffffff16815260200190815260200160002060008282546116cc9190613c7b565b925050819055506001600360008473ffffffffffffffffffffffffffffffffffffffff1673ffffffffffffffffffffffffffffffffffffffff168152602001908152602001600020600082825461172391906132a0565b92505081905550816002600083815260200190815260200160002060006101000a81548173ffffffffffffffffffffffffffffffffffffffff021916908373ffffffffffffffffffffffffffffffffffffffff160217905550808273ffffffffffffffffffffffffffffffffffffffff168473ffffffffffffffffffffffffffffffffffffffff167fddf252ad1be2c89b69c2b068fc378daa952ba7f163c4a11628f55a4df523b3ef60405160405180910390a46117e2838383611ee8565b505050565b600033905090565b816004600083815260200190815260200160002060006101000a81548173ffffffffffffffffffffffffffffffffffffffff021916908373ffffffffffffffffffffffffffffffffffffffff160217905550808273ffffffffffffffffffffffffffffffffffffffff1661186283610c0c565b73ffffffffffffffffffffffffffffffffffffffff167f8c5be1e5ebec7d5bd14f71427d1e84f3dd0314c0f7b2291e5b200ac8c7c3b92560405160405180910390a45050565b6000806118b483610c0c565b90508073ffffffffffffffffffffffffffffffffffffffff168473ffffffffffffffffffffffffffffffffffffffff1614806118f657506118f5818561108e565b5b8061193457508373ffffffffffffffffffffffffffffffffffffffff1661191c8461067d565b73ffffffffffffffffffffffffffffffffffffffff16145b91505092915050565b61194e816119496117e7565b611eed565b50565b61195b8282610d74565b611a2e5760016007600084815260200190815260200160002060000160008373ffffffffffffffffffffffffffffffffffffffff1673ffffffffffffffffffffffffffffffffffffffff16815260200190815260200160002060006101000a81548160ff0219169083151502179055506119d36117e7565b73ffffffffffffffffffffffffffffffffffffffff168173ffffffffffffffffffffffffffffffffffffffff16837f2f8788117e7eff1d82e926ec794901d17c78024a50270940304540a733656f0d60405160405180910390a45b5050565b611a3c8282610d74565b15611b105760006007600084815260200190815260200160002060000160008373ffffffffffffffffffffffffffffffffffffffff1673ffffffffffffffffffffffffffffffffffffffff16815260200190815260200160002060006101000a81548160ff021916908315150217905550611ab56117e7565b73ffffffffffffffffffffffffffffffffffffffff168173ffffffffffffffffffffffffffffffffffffffff16837ff6391f5c32d9c69d2a47ea670b442974b53935d1edc7fd64eb21e047a839171b60405160405180910390a45b5050565b8173ffffffffffffffffffffffffffffffffffffffff168373ffffffffffffffffffffffffffffffffffffffff1603611b82576040517f08c379a0000000000000000000000000000000000000000000000000000000008152600401611b7990613cfb565b60405180910390fd5b80600560008573ffffffffffffffffffffffffffffffffffffffff1673ffffffffffffffffffffffffffffffffffffffff16815260200190815260200160002060008473ffffffffffffffffffffffffffffffffffffffff1673ffffffffffffffffffffffffffffffffffffffff16815260200190815260200160002060006101000a81548160ff0219169083151502179055508173ffffffffffffffffffffffffffffffffffffffff168373ffffffffffffffffffffffffffffffffffffffff167f17307eab39ab6107e8899845ad3d59bd9653f200f220920489ca2b5937696c3183604051611c739190612a4e565b60405180910390a3505050565b611c8b848484611581565b611c9784848484611f8a565b611cd6576040517f08c379a0000000000000000000000000000000000000000000000000000000008152600401611ccd90613d8d565b60405180910390fd5b50505050565b606060405180602001604052806000815250905090565b6060611cfe8261127e565b6000611d08611cdc565b90506000815111611d285760405180602001604052806000815250611d53565b80611d3284612111565b604051602001611d439291906136e8565b6040516020818303038152906040525b915050919050565b60007f01ffc9a7000000000000000000000000000000000000000000000000000000007bffffffffffffffffffffffffffffffffffffffffffffffffffffffff1916827bffffffffffffffffffffffffffffffffffffffffffffffffffffffff1916149050919050565b60008073ffffffffffffffffffffffffffffffffffffffff166002600084815260200190815260200160002060009054906101000a900473ffffffffffffffffffffffffffffffffffffffff1673ffffffffffffffffffffffffffffffffffffffff1614159050919050565b6000611eb57f6316f9ddd4d59a364f3b95c26bab9d392c3380ace0fff15e91ed76f0d8bcd15a83600001358460200135858060400190611e71919061320e565b604051611e7f929190613ddd565b6040518091039020604051602001611e9a9493929190613df6565b60405160208183030381529060405280519060200120612271565b9050919050565b6000806000611ecb858561228b565b91509150611ed8816122dc565b819250505092915050565b505050565b505050565b611ef78282610d74565b611f8657611f1c8173ffffffffffffffffffffffffffffffffffffffff1660146124a8565b611f2a8360001c60206124a8565b604051602001611f3b929190613ed3565b6040516020818303038152906040526040517f08c379a0000000000000000000000000000000000000000000000000000000008152600401611f7d9190612af9565b60405180910390fd5b5050565b6000611fab8473ffffffffffffffffffffffffffffffffffffffff166126e4565b15612104578373ffffffffffffffffffffffffffffffffffffffff1663150b7a02611fd46117e7565b8786866040518563ffffffff1660e01b8152600401611ff69493929190613f62565b6020604051808303816000875af192505050801561203257506040513d601f19601f8201168201806040525081019061202f9190613fc3565b60015b6120b4573d8060008114612062576040519150601f19603f3d011682016040523d82523d6000602084013e612067565b606091505b5060008151036120ac576040517f08c379a00000000000000000000000000000000000000000000000000000000081526004016120a390613d8d565b60405180910390fd5b805181602001fd5b63150b7a0260e01b7bffffffffffffffffffffffffffffffffffffffffffffffffffffffff1916817bffffffffffffffffffffffffffffffffffffffffffffffffffffffff191614915050612109565b600190505b949350505050565b606060008203612158576040518060400160405280600181526020017f3000000000000000000000000000000000000000000000000000000000000000815250905061226c565b600082905060005b6000821461218a57808061217390613ff0565b915050600a826121839190614067565b9150612160565b60008167ffffffffffffffff8111156121a6576121a5612eb3565b5b6040519080825280601f01601f1916602001820160405280156121d85781602001600182028036833780820191505090505b5090505b60008514612265576001826121f19190613c7b565b9150600a856122009190614098565b603061220c91906132a0565b60f81b818381518110612222576122216140c9565b5b60200101907effffffffffffffffffffffffffffffffffffffffffffffffffffffffffffff1916908160001a905350600a8561225e9190614067565b94506121dc565b8093505050505b919050565b600061228461227e612707565b83612821565b9050919050565b60008060418351036122cc5760008060006020860151925060408601519150606086015160001a90506122c087828585612854565b945094505050506122d5565b60006002915091505b9250929050565b600060048111156122f0576122ef6140f8565b5b816004811115612303576123026140f8565b5b03156124a5576001600481111561231d5761231c6140f8565b5b8160048111156123305761232f6140f8565b5b03612370576040517f08c379a000000000000000000000000000000000000000000000000000000000815260040161236790614173565b60405180910390fd5b60026004811115612384576123836140f8565b5b816004811115612397576123966140f8565b5b036123d7576040517f08c379a00000000000000000000000000000000000000000000000000000000081526004016123ce906141df565b60405180910390fd5b600360048111156123eb576123ea6140f8565b5b8160048111156123fe576123fd6140f8565b5b0361243e576040517f08c379a000000000000000000000000000000000000000000000000000000000815260040161243590614271565b60405180910390fd5b600480811115612451576124506140f8565b5b816004811115612464576124636140f8565b5b036124a4576040517f08c379a000000000000000000000000000000000000000000000000000000000815260040161249b90614303565b60405180910390fd5b5b50565b6060600060028360026124bb9190614323565b6124c591906132a0565b67ffffffffffffffff8111156124de576124dd612eb3565b5b6040519080825280601f01601f1916602001820160405280156125105781602001600182028036833780820191505090505b5090507f300000000000000000000000000000000000000000000000000000000000000081600081518110612548576125476140c9565b5b60200101907effffffffffffffffffffffffffffffffffffffffffffffffffffffffffffff1916908160001a9053507f7800000000000000000000000000000000000000000000000000000000000000816001815181106125ac576125ab6140c9565b5b60200101907effffffffffffffffffffffffffffffffffffffffffffffffffffffffffffff1916908160001a905350600060018460026125ec9190614323565b6125f691906132a0565b90505b6001811115612696577f3031323334353637383961626364656600000000000000000000000000000000600f861660108110612638576126376140c9565b5b1a60f81b82828151811061264f5761264e6140c9565b5b60200101907effffffffffffffffffffffffffffffffffffffffffffffffffffffffffffff1916908160001a905350600485901c94508061268f90614365565b90506125f9565b50600084146126da576040517f08c379a00000000000000000000000000000000000000000000000000000000081526004016126d1906143da565b60405180910390fd5b8091505092915050565b6000808273ffffffffffffffffffffffffffffffffffffffff163b119050919050565b60007f000000000000000000000000000000000000000000000000000000000000000073ffffffffffffffffffffffffffffffffffffffff163073ffffffffffffffffffffffffffffffffffffffff1614801561278357507f000000000000000000000000000000000000000000000000000000000000000046145b156127b0577f0000000000000000000000000000000000000000000000000000000000000000905061281e565b61281b7f00000000000000000000000000000000000000000000000000000000000000007f00000000000000000000000000000000000000000000000000000000000000007f0000000000000000000000000000000000000000000000000000000000000000612960565b90505b90565b60008282604051602001612836929190614467565b60405160208183030381529060405280519060200120905092915050565b6000807f7fffffffffffffffffffffffffffffff5d576e7357a4501ddfe92f46681b20a08360001c111561288f576000600391509150612957565b601b8560ff16141580156128a75750601c8560ff1614155b156128b9576000600491509150612957565b6000600187878787604051600081526020016040526040516128de94939291906144ba565b6020604051602081039080840390855afa158015612900573d6000803e3d6000fd5b505050602060405103519050600073ffffffffffffffffffffffffffffffffffffffff168173ffffffffffffffffffffffffffffffffffffffff160361294e57600060019250925050612957565b80600092509250505b94509492505050565b6000838383463060405160200161297b9594939291906144ff565b6040516020818303038152906040528051906020012090509392505050565b6000604051905090565b600080fd5b600080fd5b60007fffffffff0000000000000000000000000000000000000000000000000000000082169050919050565b6129e3816129ae565b81146129ee57600080fd5b50565b600081359050612a00816129da565b92915050565b600060208284031215612a1c57612a1b6129a4565b5b6000612a2a848285016129f1565b91505092915050565b60008115159050919050565b612a4881612a33565b82525050565b6000602082019050612a636000830184612a3f565b92915050565b600081519050919050565b600082825260208201905092915050565b60005b83811015612aa3578082015181840152602081019050612a88565b60008484015250505050565b6000601f19601f8301169050919050565b6000612acb82612a69565b612ad58185612a74565b9350612ae5818560208601612a85565b612aee81612aaf565b840191505092915050565b60006020820190508181036000830152612b138184612ac0565b905092915050565b6000819050919050565b612b2e81612b1b565b8114612b3957600080fd5b50565b600081359050612b4b81612b25565b92915050565b600060208284031215612b6757612b666129a4565b5b6000612b7584828501612b3c565b91505092915050565b600073ffffffffffffffffffffffffffffffffffffffff82169050919050565b6000612ba982612b7e565b9050919050565b612bb981612b9e565b82525050565b6000602082019050612bd46000830184612bb0565b92915050565b612be381612b9e565b8114612bee57600080fd5b50565b600081359050612c0081612bda565b92915050565b600080fd5b600060808284031215612c2157612c20612c06565b5b81905092915050565b60008060408385031215612c4157612c406129a4565b5b6000612c4f85828601612bf1565b925050602083013567ffffffffffffffff811115612c7057612c6f6129a9565b5b612c7c85828601612c0b565b9150509250929050565b612c8f81612b1b565b82525050565b6000602082019050612caa6000830184612c86565b92915050565b60008060408385031215612cc757612cc66129a4565b5b6000612cd585828601612bf1565b9250506020612ce685828601612b3c565b9150509250929050565b600080600060608486031215612d0957612d086129a4565b5b6000612d1786828701612bf1565b9350506020612d2886828701612bf1565b9250506040612d3986828701612b3c565b9150509250925092565b6000819050919050565b612d5681612d43565b8114612d6157600080fd5b50565b600081359050612d7381612d4d565b92915050565b600060208284031215612d8f57612d8e6129a4565b5b6000612d9d84828501612d64565b91505092915050565b612daf81612d43565b82525050565b6000602082019050612dca6000830184612da6565b92915050565b60008060408385031215612de757612de66129a4565b5b6000612df585828601612d64565b9250506020612e0685828601612bf1565b9150509250929050565b600060208284031215612e2657612e256129a4565b5b6000612e3484828501612bf1565b91505092915050565b612e4681612a33565b8114612e5157600080fd5b50565b600081359050612e6381612e3d565b92915050565b60008060408385031215612e8057612e7f6129a4565b5b6000612e8e85828601612bf1565b9250506020612e9f85828601612e54565b9150509250929050565b600080fd5b600080fd5b7f4e487b7100000000000000000000000000000000000000000000000000000000600052604160045260246000fd5b612eeb82612aaf565b810181811067ffffffffffffffff82111715612f0a57612f09612eb3565b5b80604052505050565b6000612f1d61299a565b9050612f298282612ee2565b919050565b600067ffffffffffffffff821115612f4957612f48612eb3565b5b612f5282612aaf565b9050602081019050919050565b82818337600083830152505050565b6000612f81612f7c84612f2e565b612f13565b905082815260208101848484011115612f9d57612f9c612eae565b5b612fa8848285612f5f565b509392505050565b600082601f830112612fc557612fc4612ea9565b5b8135612fd5848260208601612f6e565b91505092915050565b60008060008060808587031215612ff857612ff76129a4565b5b600061300687828801612bf1565b945050602061301787828801612bf1565b935050604061302887828801612b3c565b925050606085013567ffffffffffffffff811115613049576130486129a9565b5b61305587828801612fb0565b91505092959194509250565b60008060408385031215613078576130776129a4565b5b600061308685828601612bf1565b925050602061309785828601612bf1565b9150509250929050565b7f4e487b7100000000000000000000000000000000000000000000000000000000600052602260045260246000fd5b600060028204905060018216806130e857607f821691505b6020821081036130fb576130fa6130a1565b5b50919050565b7f5369676e617475726520696e76616c6964206f7220756e617574686f72697a6560008201527f6400000000000000000000000000000000000000000000000000000000000000602082015250565b600061315d602183612a74565b915061316882613101565b604082019050919050565b6000602082019050818103600083015261318c81613150565b9050919050565b7f496e73756666696369656e742066756e647320746f2072656465656d00000000600082015250565b60006131c9601c83612a74565b91506131d482613193565b602082019050919050565b600060208201905081810360008301526131f8816131bc565b9050919050565b600080fd5b600080fd5b600080fd5b6000808335600160200384360303811261322b5761322a6131ff565b5b80840192508235915067ffffffffffffffff82111561324d5761324c613204565b5b60208301925060018202360383131561326957613268613209565b5b509250929050565b7f4e487b7100000000000000000000000000000000000000000000000000000000600052601160045260246000fd5b60006132ab82612b1b565b91506132b683612b1b565b92508282019050808211156132ce576132cd613271565b5b92915050565b7f4552433732313a20617070726f76616c20746f2063757272656e74206f776e6560008201527f7200000000000000000000000000000000000000000000000000000000000000602082015250565b6000613330602183612a74565b915061333b826132d4565b604082019050919050565b6000602082019050818103600083015261335f81613323565b9050919050565b7f4552433732313a20617070726f76652063616c6c6572206973206e6f7420746f60008201527f6b656e206f776e6572206e6f7220617070726f76656420666f7220616c6c0000602082015250565b60006133c2603e83612a74565b91506133cd82613366565b604082019050919050565b600060208201905081810360008301526133f1816133b5565b9050919050565b7f4552433732313a2063616c6c6572206973206e6f7420746f6b656e206f776e6560008201527f72206e6f7220617070726f766564000000000000000000000000000000000000602082015250565b6000613454602e83612a74565b915061345f826133f8565b604082019050919050565b6000602082019050818103600083015261348381613447565b9050919050565b7f416363657373436f6e74726f6c3a2063616e206f6e6c792072656e6f756e636560008201527f20726f6c657320666f722073656c660000000000000000000000000000000000602082015250565b60006134e6602f83612a74565b91506134f18261348a565b604082019050919050565b60006020820190508181036000830152613515816134d9565b9050919050565b7f4f6e6c7920617574686f72697a6564206d696e746572732063616e207769746860008201527f6472617700000000000000000000000000000000000000000000000000000000602082015250565b6000613578602483612a74565b91506135838261351c565b604082019050919050565b600060208201905081810360008301526135a78161356b565b9050919050565b7f4552433732313a20696e76616c696420746f6b656e2049440000000000000000600082015250565b60006135e4601883612a74565b91506135ef826135ae565b602082019050919050565b60006020820190508181036000830152613613816135d7565b9050919050565b7f4552433732313a2061646472657373207a65726f206973206e6f74206120766160008201527f6c6964206f776e65720000000000000000000000000000000000000000000000602082015250565b6000613676602983612a74565b91506136818261361a565b604082019050919050565b600060208201905081810360008301526136a581613669565b9050919050565b600081905092915050565b60006136c282612a69565b6136cc81856136ac565b93506136dc818560208601612a85565b80840191505092915050565b60006136f482856136b7565b915061370082846136b7565b91508190509392505050565b60008083356001602003843603038112613729576137286131ff565b5b80840192508235915067ffffffffffffffff82111561374b5761374a613204565b5b60208301925060018202360383131561376757613766613209565b5b509250929050565b7f4552433732313a206d696e7420746f20746865207a65726f2061646472657373600082015250565b60006137a5602083612a74565b91506137b08261376f565b602082019050919050565b600060208201905081810360008301526137d481613798565b9050919050565b7f4552433732313a20746f6b656e20616c7265616479206d696e74656400000000600082015250565b6000613811601c83612a74565b915061381c826137db565b602082019050919050565b6000602082019050818103600083015261384081613804565b9050919050565b7f45524337323155524953746f726167653a2055524920736574206f66206e6f6e60008201527f6578697374656e7420746f6b656e000000000000000000000000000000000000602082015250565b60006138a3602e83612a74565b91506138ae82613847565b604082019050919050565b600060208201905081810360008301526138d281613896565b9050919050565b60008190508160005260206000209050919050565b60006020601f8301049050919050565b600082821b905092915050565b60006008830261393b7fffffffffffffffffffffffffffffffffffffffffffffffffffffffffffffffff826138fe565b61394586836138fe565b95508019841693508086168417925050509392505050565b6000819050919050565b600061398261397d61397884612b1b565b61395d565b612b1b565b9050919050565b6000819050919050565b61399c83613967565b6139b06139a882613989565b84845461390b565b825550505050565b600090565b6139c56139b8565b6139d0818484613993565b505050565b5b818110156139f4576139e96000826139bd565b6001810190506139d6565b5050565b601f821115613a3957613a0a816138d9565b613a13846138ee565b81016020851015613a22578190505b613a36613a2e856138ee565b8301826139d5565b50505b505050565b600082821c905092915050565b6000613a5c60001984600802613a3e565b1980831691505092915050565b6000613a758383613a4b565b9150826002028217905092915050565b613a8e82612a69565b67ffffffffffffffff811115613aa757613aa6612eb3565b5b613ab182546130d0565b613abc8282856139f8565b600060209050601f831160018114613aef5760008415613add578287015190505b613ae78582613a69565b865550613b4f565b601f198416613afd866138d9565b60005b82811015613b2557848901518255600182019150602085019450602081019050613b00565b86831015613b425784890151613b3e601f891682613a4b565b8355505b6001600288020188555050505b505050505050565b7f4552433732313a207472616e736665722066726f6d20696e636f72726563742060008201527f6f776e6572000000000000000000000000000000000000000000000000000000602082015250565b6000613bb3602583612a74565b9150613bbe82613b57565b604082019050919050565b60006020820190508181036000830152613be281613ba6565b9050919050565b7f4552433732313a207472616e7366657220746f20746865207a65726f2061646460008201527f7265737300000000000000000000000000000000000000000000000000000000602082015250565b6000613c45602483612a74565b9150613c5082613be9565b604082019050919050565b60006020820190508181036000830152613c7481613c38565b9050919050565b6000613c8682612b1b565b9150613c9183612b1b565b9250828203905081811115613ca957613ca8613271565b5b92915050565b7f4552433732313a20617070726f766520746f2063616c6c657200000000000000600082015250565b6000613ce5601983612a74565b9150613cf082613caf565b602082019050919050565b60006020820190508181036000830152613d1481613cd8565b9050919050565b7f4552433732313a207472616e7366657220746f206e6f6e20455243373231526560008201527f63656976657220696d706c656d656e7465720000000000000000000000000000602082015250565b6000613d77603283612a74565b9150613d8282613d1b565b604082019050919050565b60006020820190508181036000830152613da681613d6a565b9050919050565b600081905092915050565b6000613dc48385613dad565b9350613dd1838584612f5f565b82840190509392505050565b6000613dea828486613db8565b91508190509392505050565b6000608082019050613e0b6000830187612da6565b613e186020830186612c86565b613e256040830185612c86565b613e326060830184612da6565b95945050505050565b7f416363657373436f6e74726f6c3a206163636f756e7420000000000000000000600082015250565b6000613e716017836136ac565b9150613e7c82613e3b565b601782019050919050565b7f206973206d697373696e6720726f6c6520000000000000000000000000000000600082015250565b6000613ebd6011836136ac565b9150613ec882613e87565b601182019050919050565b6000613ede82613e64565b9150613eea82856136b7565b9150613ef582613eb0565b9150613f0182846136b7565b91508190509392505050565b600081519050919050565b600082825260208201905092915050565b6000613f3482613f0d565b613f3e8185613f18565b9350613f4e818560208601612a85565b613f5781612aaf565b840191505092915050565b6000608082019050613f776000830187612bb0565b613f846020830186612bb0565b613f916040830185612c86565b8181036060830152613fa38184613f29565b905095945050505050565b600081519050613fbd816129da565b92915050565b600060208284031215613fd957613fd86129a4565b5b6000613fe784828501613fae565b91505092915050565b6000613ffb82612b1b565b91507fffffffffffffffffffffffffffffffffffffffffffffffffffffffffffffffff820361402d5761402c613271565b5b600182019050919050565b7f4e487b7100000000000000000000000000000000000000000000000000000000600052601260045260246000fd5b600061407282612b1b565b915061407d83612b1b565b92508261408d5761408c614038565b5b828204905092915050565b60006140a382612b1b565b91506140ae83612b1b565b9250826140be576140bd614038565b5b828206905092915050565b7f4e487b7100000000000000000000000000000000000000000000000000000000600052603260045260246000fd5b7f4e487b7100000000000000000000000000000000000000000000000000000000600052602160045260246000fd5b7f45434453413a20696e76616c6964207369676e61747572650000000000000000600082015250565b600061415d601883612a74565b915061416882614127565b602082019050919050565b6000602082019050818103600083015261418c81614150565b9050919050565b7f45434453413a20696e76616c6964207369676e6174757265206c656e67746800600082015250565b60006141c9601f83612a74565b91506141d482614193565b602082019050919050565b600060208201905081810360008301526141f8816141bc565b9050919050565b7f45434453413a20696e76616c6964207369676e6174757265202773272076616c60008201527f7565000000000000000000000000000000000000000000000000000000000000602082015250565b600061425b602283612a74565b9150614266826141ff565b604082019050919050565b6000602082019050818103600083015261428a8161424e565b9050919050565b7f45434453413a20696e76616c6964207369676e6174757265202776272076616c60008201527f7565000000000000000000000000000000000000000000000000000000000000602082015250565b60006142ed602283612a74565b91506142f882614291565b604082019050919050565b6000602082019050818103600083015261431c816142e0565b9050919050565b600061432e82612b1b565b915061433983612b1b565b925082820261434781612b1b565b9150828204841483151761435e5761435d613271565b5b5092915050565b600061437082612b1b565b91506000820361438357614382613271565b5b600182039050919050565b7f537472696e67733a20686578206c656e67746820696e73756666696369656e74600082015250565b60006143c4602083612a74565b91506143cf8261438e565b602082019050919050565b600060208201905081810360008301526143f3816143b7565b9050919050565b7f1901000000000000000000000000000000000000000000000000000000000000600082015250565b60006144306002836136ac565b915061443b826143fa565b600282019050919050565b6000819050919050565b61446161445c82612d43565b614446565b82525050565b600061447282614423565b915061447e8285614450565b60208201915061448e8284614450565b6020820191508190509392505050565b600060ff82169050919050565b6144b48161449e565b82525050565b60006080820190506144cf6000830187612da6565b6144dc60208301866144ab565b6144e96040830185612da6565b6144f66060830184612da6565b95945050505050565b600060a0820190506145146000830188612da6565b6145216020830187612da6565b61452e6040830186612da6565b61453b6060830185612c86565b6145486080830184612bb0565b969550505050505056fea26469706673582212206353245008ad337728717a1b5f6b99f783c3dd92e966ebe65a2b81d9ba6a2ddf64736f6c63430008110033",
  "immutableReferences": {
    "2482": [
      {
        "length": 32,
        "start": 10122
      }
    ],
    "2484": [
      {
        "length": 32,
        "start": 10081
      }
    ],
    "2486": [
      {
        "length": 32,
        "start": 9995
      }
    ],
    "2488": [
      {
        "length": 32,
        "start": 10198
      }
    ],
    "2490": [
      {
        "length": 32,
        "start": 10231
      }
    ],
    "2492": [
      {
        "length": 32,
        "start": 10165
      }
    ]
  },
  "source": "//SPDX-License-Identifier: Unlicense\npragma solidity ^0.8.4;\npragma abicoder v2; // required to accept structs as function parameters\n\n\n// // import \"hardhat/console.sol\";\n// import \"/Users/rahul/Documents/main/personal_learning_projects/fundamentals/node_modules/@openzeppelin/contracts/token/ERC721/ERC721.sol\";\n// import \"/Users/rahul/Documents/main/personal_learning_projects/fundamentals/node_modules/@openzeppelin/contracts/token/ERC721/extensions/ERC721URIStorage.sol\";\n// import \"/Users/rahul/Documents/main/personal_learning_projects/fundamentals/node_modules/@openzeppelin/contracts/access/AccessControl.sol\";\n// import \"/Users/rahul/Documents/main/personal_learning_projects/fundamentals/node_modules/@openzeppelin/contracts/utils/cryptography/ECDSA.sol\";\n// import \"/Users/rahul/Documents/main/personal_learning_projects/fundamentals/node_modules/@openzeppelin/contracts/utils/cryptography/draft-EIP712.sol\";\n\nimport \"@openzeppelin/contracts/token/ERC721/ERC721.sol\";\nimport \"@openzeppelin/contracts/token/ERC721/extensions/ERC721URIStorage.sol\";\nimport \"@openzeppelin/contracts/access/AccessControl.sol\";\nimport \"@openzeppelin/contracts/utils/cryptography/ECDSA.sol\";\nimport \"@openzeppelin/contracts/utils/cryptography/draft-EIP712.sol\";\n\n\n\n// TODO: \n  // fix import errors and test this function\n  // **create full lazy-mint-nft with mint, buy functionality on web-app (on local-node)\n\n\ncontract LazyNFT is ERC721URIStorage, EIP712, AccessControl {\n  bytes32 public constant MINTER_ROLE = keccak256(\"MINTER_ROLE\");\n  string private constant SIGNING_DOMAIN = \"LazyNFT-Voucher\";\n  string private constant SIGNATURE_VERSION = \"1\";\n\n  mapping (address => uint256) pendingWithdrawals;\n\n  constructor(address payable minter)\n    ERC721(\"LazyNFT\", \"LAZ\") \n    EIP712(SIGNING_DOMAIN, SIGNATURE_VERSION) {\n      _setupRole(MINTER_ROLE, minter);\n    }\n\n  /// @notice Represents an un-minted NFT, which has not yet been recorded into the blockchain. A signed voucher can be redeemed for a real NFT using the redeem function.\n  struct NFTVoucher {\n    /// @notice The id of the token to be redeemed. Must be unique - if another token with this ID already exists, the redeem function will revert.\n    uint256 tokenId;\n\n    /// @notice The minimum price (in wei) that the NFT creator is willing to accept for the initial sale of this NFT.\n    uint256 minPrice;\n\n    /// @notice The metadata URI to associate with this token.\n    string uri;\n\n    /// @notice the EIP-712 signature of all other fields in the NFTVoucher struct. For a voucher to be valid, it must be signed by an account with the MINTER_ROLE.\n    bytes signature;\n  }\n\n\n  /// @notice Redeems an NFTVoucher for an actual NFT, creating it in the process.\n  /// @param redeemer The address of the account which will receive the NFT upon success.\n  /// @param voucher A signed NFTVoucher that describes the NFT to be redeemed.\n  function redeem(address redeemer, NFTVoucher calldata voucher) public payable returns (uint256) {\n    // make sure signature is valid and get the address of the signer\n    address signer = _verify(voucher);\n\n    // make sure that the signer is authorized to mint NFTs\n    require(hasRole(MINTER_ROLE, signer), \"Signature invalid or unauthorized\");\n\n    // make sure that the redeemer is paying enough to cover the buyer's cost\n    require(msg.value >= voucher.minPrice, \"Insufficient funds to redeem\");\n\n    // first assign the token to the signer, to establish provenance on-chain\n    _mint(signer, voucher.tokenId);\n    _setTokenURI(voucher.tokenId, voucher.uri);\n    \n    // transfer the token to the redeemer\n    _transfer(signer, redeemer, voucher.tokenId);\n\n    // record payment to signer's withdrawal balance\n    pendingWithdrawals[signer] += msg.value;\n\n    return voucher.tokenId;\n  }\n\n  /// @notice Transfers all pending withdrawal balance to the caller. Reverts if the caller is not an authorized minter.\n  function withdraw() public {\n    require(hasRole(MINTER_ROLE, msg.sender), \"Only authorized minters can withdraw\");\n    \n    // IMPORTANT: casting msg.sender to a payable address is only safe if ALL members of the minter role are payable addresses.\n    address payable receiver = payable(msg.sender);\n\n    uint amount = pendingWithdrawals[receiver];\n    // zero account before transfer to prevent re-entrancy attack\n    pendingWithdrawals[receiver] = 0;\n    receiver.transfer(amount);\n  }\n\n  /// @notice Retuns the amount of Ether available to the caller to withdraw.\n  function availableToWithdraw() public view returns (uint256) {\n    return pendingWithdrawals[msg.sender];\n  }\n\n  /// @notice Returns a hash of the given NFTVoucher, prepared using EIP712 typed data hashing rules.\n  /// @param voucher An NFTVoucher to hash.\n  function _hash(NFTVoucher calldata voucher) internal view returns (bytes32) {\n    return _hashTypedDataV4(keccak256(abi.encode(\n      keccak256(\"NFTVoucher(uint256 tokenId,uint256 minPrice,string uri)\"),\n      voucher.tokenId,\n      voucher.minPrice,\n      keccak256(bytes(voucher.uri))\n    )));\n  }\n\n  /// @notice Returns the chain id of the current blockchain.\n  /// @dev This is used to workaround an issue with ganache returning different values from the on-chain chainid() function and\n  ///  the eth_chainId RPC method. See https://github.com/protocol/nft-website/issues/121 for context.\n  function getChainID() external view returns (uint256) {\n    uint256 id;\n    assembly {\n        id := chainid()\n    }\n    return id;\n  }\n\n  /// @notice Verifies the signature for a given NFTVoucher, returning the address of the signer.\n  /// @dev Will revert if the signature is invalid. Does not verify that the signer is authorized to mint NFTs.\n  /// @param voucher An NFTVoucher describing an unminted NFT.\n  function _verify(NFTVoucher calldata voucher) internal view returns (address) {\n    bytes32 digest = _hash(voucher);\n    return ECDSA.recover(digest, voucher.signature);\n  }\n\n  function supportsInterface(bytes4 interfaceId) public view virtual override (AccessControl, ERC721) returns (bool) {\n    return ERC721.supportsInterface(interfaceId) || AccessControl.supportsInterface(interfaceId);\n  }\n  \n  \n}\n\n\n\n\n",
  "sourcePath": "/Users/rahul/Documents/main/personal_learning_projects/fundamentals/nft_tutorial_two/contracts/CreatorLazyNFT.sol",
  "compiler": {
    "name": "solc",
    "version": "0.8.17+commit.8df45f5f.Emscripten.clang"
  },
  "schemaVersion": "3.4.10",
  "updatedAt": "2022-09-28T12:40:41.749Z",
  "devdoc": {
    "kind": "dev",
    "methods": {
      "approve(address,uint256)": {
        "details": "See {IERC721-approve}."
      },
      "balanceOf(address)": {
        "details": "See {IERC721-balanceOf}."
      },
      "getApproved(uint256)": {
        "details": "See {IERC721-getApproved}."
      },
      "getChainID()": {
        "details": "This is used to workaround an issue with ganache returning different values from the on-chain chainid() function and  the eth_chainId RPC method. See https://github.com/protocol/nft-website/issues/121 for context."
      },
      "getRoleAdmin(bytes32)": {
        "details": "Returns the admin role that controls `role`. See {grantRole} and {revokeRole}. To change a role's admin, use {_setRoleAdmin}."
      },
      "grantRole(bytes32,address)": {
        "details": "Grants `role` to `account`. If `account` had not been already granted `role`, emits a {RoleGranted} event. Requirements: - the caller must have ``role``'s admin role. May emit a {RoleGranted} event."
      },
      "hasRole(bytes32,address)": {
        "details": "Returns `true` if `account` has been granted `role`."
      },
      "isApprovedForAll(address,address)": {
        "details": "See {IERC721-isApprovedForAll}."
      },
      "name()": {
        "details": "See {IERC721Metadata-name}."
      },
      "ownerOf(uint256)": {
        "details": "See {IERC721-ownerOf}."
      },
      "redeem(address,(uint256,uint256,string,bytes))": {
        "params": {
          "redeemer": "The address of the account which will receive the NFT upon success.",
          "voucher": "A signed NFTVoucher that describes the NFT to be redeemed."
        }
      },
      "renounceRole(bytes32,address)": {
        "details": "Revokes `role` from the calling account. Roles are often managed via {grantRole} and {revokeRole}: this function's purpose is to provide a mechanism for accounts to lose their privileges if they are compromised (such as when a trusted device is misplaced). If the calling account had been revoked `role`, emits a {RoleRevoked} event. Requirements: - the caller must be `account`. May emit a {RoleRevoked} event."
      },
      "revokeRole(bytes32,address)": {
        "details": "Revokes `role` from `account`. If `account` had been granted `role`, emits a {RoleRevoked} event. Requirements: - the caller must have ``role``'s admin role. May emit a {RoleRevoked} event."
      },
      "safeTransferFrom(address,address,uint256)": {
        "details": "See {IERC721-safeTransferFrom}."
      },
      "safeTransferFrom(address,address,uint256,bytes)": {
        "details": "See {IERC721-safeTransferFrom}."
      },
      "setApprovalForAll(address,bool)": {
        "details": "See {IERC721-setApprovalForAll}."
      },
      "symbol()": {
        "details": "See {IERC721Metadata-symbol}."
      },
      "tokenURI(uint256)": {
        "details": "See {IERC721Metadata-tokenURI}."
      },
      "transferFrom(address,address,uint256)": {
        "details": "See {IERC721-transferFrom}."
      }
    },
    "version": 1
  },
  "userdoc": {
    "kind": "user",
    "methods": {
      "availableToWithdraw()": {
        "notice": "Retuns the amount of Ether available to the caller to withdraw."
      },
      "getChainID()": {
        "notice": "Returns the chain id of the current blockchain."
      },
      "redeem(address,(uint256,uint256,string,bytes))": {
        "notice": "Redeems an NFTVoucher for an actual NFT, creating it in the process."
      },
      "withdraw()": {
        "notice": "Transfers all pending withdrawal balance to the caller. Reverts if the caller is not an authorized minter."
      }
    },
    "version": 1
  }
}