{
  "contractName": "BasicERC721",
  "abi": [
    {
      "inputs": [
        {
          "internalType": "string",
          "name": "name_",
          "type": "string"
        },
        {
          "internalType": "string",
          "name": "symbol_",
          "type": "string"
        }
      ],
      "stateMutability": "nonpayable",
      "type": "constructor"
    },
    {
      "anonymous": false,
      "inputs": [
        {
          "indexed": true,
          "internalType": "address",
          "name": "from",
          "type": "address"
        },
        {
          "indexed": true,
          "internalType": "address",
          "name": "to",
          "type": "address"
        },
        {
          "indexed": false,
          "internalType": "uint256",
          "name": "value",
          "type": "uint256"
        }
      ],
      "name": "Transfer",
      "type": "event"
    },
    {
      "inputs": [],
      "name": "name",
      "outputs": [
        {
          "internalType": "string",
          "name": "",
          "type": "string"
        }
      ],
      "stateMutability": "view",
      "type": "function"
    },
    {
      "inputs": [],
      "name": "symbol",
      "outputs": [
        {
          "internalType": "string",
          "name": "",
          "type": "string"
        }
      ],
      "stateMutability": "view",
      "type": "function"
    },
    {
      "inputs": [
        {
          "internalType": "address",
          "name": "owner",
          "type": "address"
        }
      ],
      "name": "balanceOf",
      "outputs": [
        {
          "internalType": "uint256",
          "name": "",
          "type": "uint256"
        }
      ],
      "stateMutability": "view",
      "type": "function"
    },
    {
      "inputs": [
        {
          "internalType": "uint256",
          "name": "tokenId",
          "type": "uint256"
        }
      ],
      "name": "ownerOf",
      "outputs": [
        {
          "internalType": "address",
          "name": "",
          "type": "address"
        }
      ],
      "stateMutability": "view",
      "type": "function"
    },
    {
      "inputs": [
        {
          "internalType": "address",
          "name": "to",
          "type": "address"
        },
        {
          "internalType": "uint256",
          "name": "tokenId",
          "type": "uint256"
        }
      ],
      "name": "transferFrom",
      "outputs": [
        {
          "internalType": "bool",
          "name": "",
          "type": "bool"
        }
      ],
      "stateMutability": "nonpayable",
      "type": "function"
    }
  ],
  "bytecode": "0x60806040523480156200001157600080fd5b50604051620011c6380380620011c68339818101604052810190620000379190620001f6565b8160029081620000489190620004c6565b5080600390816200005a9190620004c6565b505050620005ad565b6000604051905090565b600080fd5b600080fd5b600080fd5b600080fd5b6000601f19601f8301169050919050565b7f4e487b7100000000000000000000000000000000000000000000000000000000600052604160045260246000fd5b620000cc8262000081565b810181811067ffffffffffffffff82111715620000ee57620000ed62000092565b5b80604052505050565b60006200010362000063565b9050620001118282620000c1565b919050565b600067ffffffffffffffff82111562000134576200013362000092565b5b6200013f8262000081565b9050602081019050919050565b60005b838110156200016c5780820151818401526020810190506200014f565b60008484015250505050565b60006200018f620001898462000116565b620000f7565b905082815260208101848484011115620001ae57620001ad6200007c565b5b620001bb8482856200014c565b509392505050565b600082601f830112620001db57620001da62000077565b5b8151620001ed84826020860162000178565b91505092915050565b6000806040838503121562000210576200020f6200006d565b5b600083015167ffffffffffffffff81111562000231576200023062000072565b5b6200023f85828601620001c3565b925050602083015167ffffffffffffffff81111562000263576200026262000072565b5b6200027185828601620001c3565b9150509250929050565b600081519050919050565b7f4e487b7100000000000000000000000000000000000000000000000000000000600052602260045260246000fd5b60006002820490506001821680620002ce57607f821691505b602082108103620002e457620002e362000286565b5b50919050565b60008190508160005260206000209050919050565b60006020601f8301049050919050565b600082821b905092915050565b6000600883026200034e7fffffffffffffffffffffffffffffffffffffffffffffffffffffffffffffffff826200030f565b6200035a86836200030f565b95508019841693508086168417925050509392505050565b6000819050919050565b6000819050919050565b6000620003a7620003a16200039b8462000372565b6200037c565b62000372565b9050919050565b6000819050919050565b620003c38362000386565b620003db620003d282620003ae565b8484546200031c565b825550505050565b600090565b620003f2620003e3565b620003ff818484620003b8565b505050565b5b8181101562000427576200041b600082620003e8565b60018101905062000405565b5050565b601f82111562000476576200044081620002ea565b6200044b84620002ff565b810160208510156200045b578190505b620004736200046a85620002ff565b83018262000404565b50505b505050565b600082821c905092915050565b60006200049b600019846008026200047b565b1980831691505092915050565b6000620004b6838362000488565b9150826002028217905092915050565b620004d1826200027b565b67ffffffffffffffff811115620004ed57620004ec62000092565b5b620004f98254620002b5565b620005068282856200042b565b600060209050601f8311600181146200053e576000841562000529578287015190505b620005358582620004a8565b865550620005a5565b601f1984166200054e86620002ea565b60005b82811015620005785784890151825560018201915060208501945060208101905062000551565b8683101562000598578489015162000594601f89168262000488565b8355505b6001600288020188555050505b505050505050565b610c0980620005bd6000396000f3fe608060405234801561001057600080fd5b50600436106100575760003560e01c806301c6adc31461005c57806306fdde031461008c5780636352211e146100aa57806370a08231146100da57806395d89b411461010a575b600080fd5b610076600480360381019061007191906106e4565b610128565b604051610083919061073f565b60405180910390f35b6100946101ea565b6040516100a191906107ea565b60405180910390f35b6100c460048036038101906100bf919061080c565b61027c565b6040516100d19190610848565b60405180910390f35b6100f460048036038101906100ef9190610863565b61032c565b604051610101919061089f565b60405180910390f35b6101126103e3565b60405161011f91906107ea565b60405180910390f35b600080339050600080600085815260200190815260200160002060009054906101000a900473ffffffffffffffffffffffffffffffffffffffff1690508173ffffffffffffffffffffffffffffffffffffffff168173ffffffffffffffffffffffffffffffffffffffff16146101d3576040517f08c379a00000000000000000000000000000000000000000000000000000000081526004016101ca9061092c565b60405180910390fd5b6101de828686610475565b60019250505092915050565b6060600280546101f99061097b565b80601f01602080910402602001604051908101604052809291908181526020018280546102259061097b565b80156102725780601f1061024757610100808354040283529160200191610272565b820191906000526020600020905b81548152906001019060200180831161025557829003601f168201915b5050505050905090565b60008060008084815260200190815260200160002060009054906101000a900473ffffffffffffffffffffffffffffffffffffffff169050600073ffffffffffffffffffffffffffffffffffffffff168173ffffffffffffffffffffffffffffffffffffffff1603610323576040517f08c379a000000000000000000000000000000000000000000000000000000000815260040161031a906109f8565b60405180910390fd5b80915050919050565b60008073ffffffffffffffffffffffffffffffffffffffff168273ffffffffffffffffffffffffffffffffffffffff160361039c576040517f08c379a000000000000000000000000000000000000000000000000000000000815260040161039390610a8a565b60405180910390fd5b600160008373ffffffffffffffffffffffffffffffffffffffff1673ffffffffffffffffffffffffffffffffffffffff168152602001908152602001600020549050919050565b6060600380546103f29061097b565b80601f016020809104026020016040519081016040528092919081815260200182805461041e9061097b565b801561046b5780601f106104405761010080835404028352916020019161046b565b820191906000526020600020905b81548152906001019060200180831161044e57829003601f168201915b5050505050905090565b600073ffffffffffffffffffffffffffffffffffffffff168273ffffffffffffffffffffffffffffffffffffffff16036104e4576040517f08c379a00000000000000000000000000000000000000000000000000000000081526004016104db90610b1c565b60405180910390fd5b60018060008573ffffffffffffffffffffffffffffffffffffffff1673ffffffffffffffffffffffffffffffffffffffff16815260200190815260200160002060008282546105339190610b6b565b9250508190555060018060008473ffffffffffffffffffffffffffffffffffffffff1673ffffffffffffffffffffffffffffffffffffffff16815260200190815260200160002060008282546105899190610b9f565b925050819055508160008083815260200190815260200160002060006101000a81548173ffffffffffffffffffffffffffffffffffffffff021916908373ffffffffffffffffffffffffffffffffffffffff1602179055508173ffffffffffffffffffffffffffffffffffffffff168373ffffffffffffffffffffffffffffffffffffffff167fddf252ad1be2c89b69c2b068fc378daa952ba7f163c4a11628f55a4df523b3ef8360405161063e919061089f565b60405180910390a3505050565b600080fd5b600073ffffffffffffffffffffffffffffffffffffffff82169050919050565b600061067b82610650565b9050919050565b61068b81610670565b811461069657600080fd5b50565b6000813590506106a881610682565b92915050565b6000819050919050565b6106c1816106ae565b81146106cc57600080fd5b50565b6000813590506106de816106b8565b92915050565b600080604083850312156106fb576106fa61064b565b5b600061070985828601610699565b925050602061071a858286016106cf565b9150509250929050565b60008115159050919050565b61073981610724565b82525050565b60006020820190506107546000830184610730565b92915050565b600081519050919050565b600082825260208201905092915050565b60005b83811015610794578082015181840152602081019050610779565b60008484015250505050565b6000601f19601f8301169050919050565b60006107bc8261075a565b6107c68185610765565b93506107d6818560208601610776565b6107df816107a0565b840191505092915050565b6000602082019050818103600083015261080481846107b1565b905092915050565b6000602082840312156108225761082161064b565b5b6000610830848285016106cf565b91505092915050565b61084281610670565b82525050565b600060208201905061085d6000830184610839565b92915050565b6000602082840312156108795761087861064b565b5b600061088784828501610699565b91505092915050565b610899816106ae565b82525050565b60006020820190506108b46000830184610890565b92915050565b7f4552433732313a2063616c6c6572206973206e6f7420746f6b656e206f776e6560008201527f7200000000000000000000000000000000000000000000000000000000000000602082015250565b6000610916602183610765565b9150610921826108ba565b604082019050919050565b6000602082019050818103600083015261094581610909565b9050919050565b7f4e487b7100000000000000000000000000000000000000000000000000000000600052602260045260246000fd5b6000600282049050600182168061099357607f821691505b6020821081036109a6576109a561094c565b5b50919050565b7f4552433732313a20696e76616c696420746f6b656e2049440000000000000000600082015250565b60006109e2601883610765565b91506109ed826109ac565b602082019050919050565b60006020820190508181036000830152610a11816109d5565b9050919050565b7f4552433732313a2061646472657373207a65726f206973206e6f74206120766160008201527f6c6964206f776e65720000000000000000000000000000000000000000000000602082015250565b6000610a74602983610765565b9150610a7f82610a18565b604082019050919050565b60006020820190508181036000830152610aa381610a67565b9050919050565b7f45524332303a207472616e7366657220746f20746865207a65726f206164647260008201527f6573730000000000000000000000000000000000000000000000000000000000602082015250565b6000610b06602383610765565b9150610b1182610aaa565b604082019050919050565b60006020820190508181036000830152610b3581610af9565b9050919050565b7f4e487b7100000000000000000000000000000000000000000000000000000000600052601160045260246000fd5b6000610b76826106ae565b9150610b81836106ae565b9250828203905081811115610b9957610b98610b3c565b5b92915050565b6000610baa826106ae565b9150610bb5836106ae565b9250828201905080821115610bcd57610bcc610b3c565b5b9291505056fea26469706673582212204c7fac2fe82a3ccaed46f728a16f439c78dc30b1af3f445991704b71d9dad17964736f6c63430008100033",
  "immutableReferences": {},
  "source": "pragma solidity ^0.8.0;\n\n\n\n// Basic ERC721 Token\n\ncontract BasicERC721 {\n\n  // Mapping from token ID to owner address\n  mapping(uint256 => address) private _owners;\n\n  // Mapping owner address to token count\n  mapping(address => uint256) private _balances;\n\n  string private _name; \n  string private _symbol;\n\n  event Transfer(address indexed from, address indexed to, uint256 value);\n\n\n  constructor(string memory name_, string memory symbol_) {\n    _name = name_;\n    _symbol = symbol_;\n  }\n\n\n  /*\n    Return Name\n  */\n  function name() public view returns (string memory) {\n    return _name;\n  }\n\n  /*\n    Return Symbol\n  */\n  function symbol() public view returns (string memory) {\n    return _symbol;\n  }\n\n  /*\n    Get balance, given owner address\n  */\n  function balanceOf(address owner) public view returns (uint256) {\n    require(owner != address(0), \"ERC721: address zero is not a valid owner\");\n    return _balances[owner];\n  }\n\n  /* \n    Return owner, given token-id\n  */\n  function ownerOf(uint256 tokenId) public view virtual returns (address) {\n    address owner = _owners[tokenId];\n    require(owner != address(0), \"ERC721: invalid token ID\");\n    return owner;\n  }\n\n  /*\n    transfer NFT-token ownership from one address to another\n  */\n  function transferFrom(\n    address to,\n    uint256 tokenId\n  ) public returns (bool){\n\n    // require(_isApprovedOrOwner(_msgSender(), tokenId), \"ERC721: caller is not token owner nor approved\");\n    // _transfer(from, to, tokenId);\n\n    address from = msg.sender;  // callers address\n\n    address owner = _owners[tokenId];\n    require(owner == from, \"ERC721: caller is not token owner\");\n\n    _transfer(from, to, tokenId);\n    return true;\n  \n\n  }\n\n  /* \n    private transfer method  \n  */\n  function _transfer(\n    address from,\n    address to,\n    uint256 tokenId\n  ) internal {\n\n    require(to != address(0), \"ERC20: transfer to the zero address\");\n\n    _balances[from] -= 1;\n    _balances[to] += 1;\n    _owners[tokenId] = to;\n\n    emit Transfer(from, to, tokenId);\n\n  }\n\n  /* \n    mint\n  */\n  function _mint(address to, uint256 tokenId) internal{\n\n    require(to != address(0), \"ERC721: mint to the zero address\");\n    require(!(_owners[tokenId] != address(0)), \"ERC721: token already minted\");\n\n    _balances[to] += 1;\n    _owners[tokenId] = to;\n\n    emit Transfer(address(0), to, tokenId);\n\n  }\n\n\n\n}\n\n\n\n// NFT Process: \n  // Mint --> this is when 'nft-token-id' is created and specific owner is assigned\n    // approval: \n      // when owner sells to another person, approval-access of previous-owner is gone; transferred to new owner\n\n\n\n\n\n",
  "sourcePath": "/Users/rahul/Documents/main/personal_learning_projects/fundamentals/smart_contract_tut/contracts/BasicERC721.sol",
  "compiler": {
    "name": "solc",
    "version": "0.8.16+commit.07a7930e.Emscripten.clang"
  },
  "schemaVersion": "3.4.10",
  "updatedAt": "2022-09-15T03:08:57.798Z",
  "devdoc": {
    "kind": "dev",
    "methods": {},
    "version": 1
  },
  "userdoc": {
    "kind": "user",
    "methods": {},
    "version": 1
  }
}