{
  "contractName": "BasicERC20",
  "abi": [
    {
      "inputs": [
        {
          "internalType": "string",
          "name": "name_",
          "type": "string"
        },
        {
          "internalType": "string",
          "name": "symbol_",
          "type": "string"
        }
      ],
      "stateMutability": "nonpayable",
      "type": "constructor"
    },
    {
      "anonymous": false,
      "inputs": [
        {
          "indexed": true,
          "internalType": "address",
          "name": "from",
          "type": "address"
        },
        {
          "indexed": true,
          "internalType": "address",
          "name": "to",
          "type": "address"
        },
        {
          "indexed": false,
          "internalType": "uint256",
          "name": "value",
          "type": "uint256"
        }
      ],
      "name": "Transfer",
      "type": "event"
    },
    {
      "inputs": [],
      "name": "name",
      "outputs": [
        {
          "internalType": "string",
          "name": "",
          "type": "string"
        }
      ],
      "stateMutability": "view",
      "type": "function",
      "constant": true
    },
    {
      "inputs": [],
      "name": "symbol",
      "outputs": [
        {
          "internalType": "string",
          "name": "",
          "type": "string"
        }
      ],
      "stateMutability": "view",
      "type": "function",
      "constant": true
    },
    {
      "inputs": [],
      "name": "decimals",
      "outputs": [
        {
          "internalType": "uint8",
          "name": "",
          "type": "uint8"
        }
      ],
      "stateMutability": "view",
      "type": "function",
      "constant": true
    },
    {
      "inputs": [],
      "name": "totalSupply",
      "outputs": [
        {
          "internalType": "uint256",
          "name": "",
          "type": "uint256"
        }
      ],
      "stateMutability": "view",
      "type": "function",
      "constant": true
    },
    {
      "inputs": [
        {
          "internalType": "address",
          "name": "account",
          "type": "address"
        }
      ],
      "name": "balanceOf",
      "outputs": [
        {
          "internalType": "uint256",
          "name": "",
          "type": "uint256"
        }
      ],
      "stateMutability": "view",
      "type": "function",
      "constant": true
    },
    {
      "inputs": [
        {
          "internalType": "address",
          "name": "to",
          "type": "address"
        },
        {
          "internalType": "uint256",
          "name": "amount",
          "type": "uint256"
        }
      ],
      "name": "transfer",
      "outputs": [
        {
          "internalType": "bool",
          "name": "",
          "type": "bool"
        }
      ],
      "stateMutability": "nonpayable",
      "type": "function"
    },
    {
      "inputs": [
        {
          "internalType": "address",
          "name": "account",
          "type": "address"
        },
        {
          "internalType": "uint256",
          "name": "amount",
          "type": "uint256"
        }
      ],
      "name": "mint",
      "outputs": [],
      "stateMutability": "nonpayable",
      "type": "function"
    }
  ],
  "bytecode": "0x60806040523480156200001157600080fd5b5060405162001225380380620012258339818101604052810190620000379190620001f6565b8160029081620000489190620004c6565b5080600390816200005a9190620004c6565b505050620005ad565b6000604051905090565b600080fd5b600080fd5b600080fd5b600080fd5b6000601f19601f8301169050919050565b7f4e487b7100000000000000000000000000000000000000000000000000000000600052604160045260246000fd5b620000cc8262000081565b810181811067ffffffffffffffff82111715620000ee57620000ed62000092565b5b80604052505050565b60006200010362000063565b9050620001118282620000c1565b919050565b600067ffffffffffffffff82111562000134576200013362000092565b5b6200013f8262000081565b9050602081019050919050565b60005b838110156200016c5780820151818401526020810190506200014f565b60008484015250505050565b60006200018f620001898462000116565b620000f7565b905082815260208101848484011115620001ae57620001ad6200007c565b5b620001bb8482856200014c565b509392505050565b600082601f830112620001db57620001da62000077565b5b8151620001ed84826020860162000178565b91505092915050565b6000806040838503121562000210576200020f6200006d565b5b600083015167ffffffffffffffff81111562000231576200023062000072565b5b6200023f85828601620001c3565b925050602083015167ffffffffffffffff81111562000263576200026262000072565b5b6200027185828601620001c3565b9150509250929050565b600081519050919050565b7f4e487b7100000000000000000000000000000000000000000000000000000000600052602260045260246000fd5b60006002820490506001821680620002ce57607f821691505b602082108103620002e457620002e362000286565b5b50919050565b60008190508160005260206000209050919050565b60006020601f8301049050919050565b600082821b905092915050565b6000600883026200034e7fffffffffffffffffffffffffffffffffffffffffffffffffffffffffffffffff826200030f565b6200035a86836200030f565b95508019841693508086168417925050509392505050565b6000819050919050565b6000819050919050565b6000620003a7620003a16200039b8462000372565b6200037c565b62000372565b9050919050565b6000819050919050565b620003c38362000386565b620003db620003d282620003ae565b8484546200031c565b825550505050565b600090565b620003f2620003e3565b620003ff818484620003b8565b505050565b5b8181101562000427576200041b600082620003e8565b60018101905062000405565b5050565b601f82111562000476576200044081620002ea565b6200044b84620002ff565b810160208510156200045b578190505b620004736200046a85620002ff565b83018262000404565b50505b505050565b600082821c905092915050565b60006200049b600019846008026200047b565b1980831691505092915050565b6000620004b6838362000488565b9150826002028217905092915050565b620004d1826200027b565b67ffffffffffffffff811115620004ed57620004ec62000092565b5b620004f98254620002b5565b620005068282856200042b565b600060209050601f8311600181146200053e576000841562000529578287015190505b620005358582620004a8565b865550620005a5565b601f1984166200054e86620002ea565b60005b82811015620005785784890151825560018201915060208501945060208101905062000551565b8683101562000598578489015162000594601f89168262000488565b8355505b6001600288020188555050505b505050505050565b610c6880620005bd6000396000f3fe608060405234801561001057600080fd5b506004361061007d5760003560e01c806340c10f191161005b57806340c10f19146100dc57806370a08231146100f857806395d89b4114610128578063a9059cbb146101465761007d565b806306fdde031461008257806318160ddd146100a0578063313ce567146100be575b600080fd5b61008a610176565b604051610097919061075a565b60405180910390f35b6100a8610208565b6040516100b59190610795565b60405180910390f35b6100c6610212565b6040516100d391906107cc565b60405180910390f35b6100f660048036038101906100f19190610876565b61021b565b005b610112600480360381019061010d91906108b6565b610362565b60405161011f9190610795565b60405180910390f35b6101306103aa565b60405161013d919061075a565b60405180910390f35b610160600480360381019061015b9190610876565b61043c565b60405161016d91906108fe565b60405180910390f35b60606002805461018590610948565b80601f01602080910402602001604051908101604052809291908181526020018280546101b190610948565b80156101fe5780601f106101d3576101008083540402835291602001916101fe565b820191906000526020600020905b8154815290600101906020018083116101e157829003601f168201915b5050505050905090565b6000600154905090565b60006012905090565b600073ffffffffffffffffffffffffffffffffffffffff168273ffffffffffffffffffffffffffffffffffffffff160361028a576040517f08c379a0000000000000000000000000000000000000000000000000000000008152600401610281906109c5565b60405180910390fd5b806001600082825461029c9190610a14565b92505081905550806000808473ffffffffffffffffffffffffffffffffffffffff1673ffffffffffffffffffffffffffffffffffffffff16815260200190815260200160002060008282546102f19190610a14565b925050819055508173ffffffffffffffffffffffffffffffffffffffff16600073ffffffffffffffffffffffffffffffffffffffff167fddf252ad1be2c89b69c2b068fc378daa952ba7f163c4a11628f55a4df523b3ef836040516103569190610795565b60405180910390a35050565b60008060008373ffffffffffffffffffffffffffffffffffffffff1673ffffffffffffffffffffffffffffffffffffffff168152602001908152602001600020549050919050565b6060600380546103b990610948565b80601f01602080910402602001604051908101604052809291908181526020018280546103e590610948565b80156104325780601f1061040757610100808354040283529160200191610432565b820191906000526020600020905b81548152906001019060200180831161041557829003601f168201915b5050505050905090565b60008033905061044d818585610458565b600191505092915050565b600073ffffffffffffffffffffffffffffffffffffffff168373ffffffffffffffffffffffffffffffffffffffff16036104c7576040517f08c379a00000000000000000000000000000000000000000000000000000000081526004016104be90610aba565b60405180910390fd5b600073ffffffffffffffffffffffffffffffffffffffff168273ffffffffffffffffffffffffffffffffffffffff1603610536576040517f08c379a000000000000000000000000000000000000000000000000000000000815260040161052d90610b4c565b60405180910390fd5b60008060008573ffffffffffffffffffffffffffffffffffffffff1673ffffffffffffffffffffffffffffffffffffffff168152602001908152602001600020549050818110156105bc576040517f08c379a00000000000000000000000000000000000000000000000000000000081526004016105b390610bde565b60405180910390fd5b81816105c89190610bfe565b6000808673ffffffffffffffffffffffffffffffffffffffff1673ffffffffffffffffffffffffffffffffffffffff16815260200190815260200160002081905550816000808573ffffffffffffffffffffffffffffffffffffffff1673ffffffffffffffffffffffffffffffffffffffff16815260200190815260200160002060008282546106589190610a14565b925050819055508273ffffffffffffffffffffffffffffffffffffffff168473ffffffffffffffffffffffffffffffffffffffff167fddf252ad1be2c89b69c2b068fc378daa952ba7f163c4a11628f55a4df523b3ef846040516106bc9190610795565b60405180910390a350505050565b600081519050919050565b600082825260208201905092915050565b60005b838110156107045780820151818401526020810190506106e9565b60008484015250505050565b6000601f19601f8301169050919050565b600061072c826106ca565b61073681856106d5565b93506107468185602086016106e6565b61074f81610710565b840191505092915050565b600060208201905081810360008301526107748184610721565b905092915050565b6000819050919050565b61078f8161077c565b82525050565b60006020820190506107aa6000830184610786565b92915050565b600060ff82169050919050565b6107c6816107b0565b82525050565b60006020820190506107e160008301846107bd565b92915050565b600080fd5b600073ffffffffffffffffffffffffffffffffffffffff82169050919050565b6000610817826107ec565b9050919050565b6108278161080c565b811461083257600080fd5b50565b6000813590506108448161081e565b92915050565b6108538161077c565b811461085e57600080fd5b50565b6000813590506108708161084a565b92915050565b6000806040838503121561088d5761088c6107e7565b5b600061089b85828601610835565b92505060206108ac85828601610861565b9150509250929050565b6000602082840312156108cc576108cb6107e7565b5b60006108da84828501610835565b91505092915050565b60008115159050919050565b6108f8816108e3565b82525050565b600060208201905061091360008301846108ef565b92915050565b7f4e487b7100000000000000000000000000000000000000000000000000000000600052602260045260246000fd5b6000600282049050600182168061096057607f821691505b60208210810361097357610972610919565b5b50919050565b7f45524332303a206d696e7420746f20746865207a65726f206164647265737300600082015250565b60006109af601f836106d5565b91506109ba82610979565b602082019050919050565b600060208201905081810360008301526109de816109a2565b9050919050565b7f4e487b7100000000000000000000000000000000000000000000000000000000600052601160045260246000fd5b6000610a1f8261077c565b9150610a2a8361077c565b9250828201905080821115610a4257610a416109e5565b5b92915050565b7f45524332303a207472616e736665722066726f6d20746865207a65726f20616460008201527f6472657373000000000000000000000000000000000000000000000000000000602082015250565b6000610aa46025836106d5565b9150610aaf82610a48565b604082019050919050565b60006020820190508181036000830152610ad381610a97565b9050919050565b7f45524332303a207472616e7366657220746f20746865207a65726f206164647260008201527f6573730000000000000000000000000000000000000000000000000000000000602082015250565b6000610b366023836106d5565b9150610b4182610ada565b604082019050919050565b60006020820190508181036000830152610b6581610b29565b9050919050565b7f45524332303a207472616e7366657220616d6f756e742065786365656473206260008201527f616c616e63650000000000000000000000000000000000000000000000000000602082015250565b6000610bc86026836106d5565b9150610bd382610b6c565b604082019050919050565b60006020820190508181036000830152610bf781610bbb565b9050919050565b6000610c098261077c565b9150610c148361077c565b9250828203905081811115610c2c57610c2b6109e5565b5b9291505056fea26469706673582212206cfe02d63a90e5ab6cc34e83ac509beb20467d05de710a867572bead15ff0f8864736f6c63430008100033",
  "immutableReferences": {},
  "source": "pragma solidity ^0.8.0;\n\n\n// Basic ERC-20 Token\n\ncontract BasicERC20 {\n\n  // state? \n    // supply of tokens availabe --> public\n\n  mapping(address => uint256) private _balances; \n\n  uint256 private _totalSupply;\n  string private _name; \n  string private _symbol;\n\n  event Transfer(address indexed from, address indexed to, uint256 value);\n\n  /* \n    All two of these values are immutable: they can only be set once during construction.\n  */\n  constructor(string memory name_, string memory symbol_) {\n    _name = name_;\n    _symbol = symbol_;\n  }\n\n\n  /* \n    Return Token Name\n  */\n  function name() public view returns (string memory) {\n    return _name;\n  }\n  \n  /* \n    Return Token Symbol\n  */\n  function symbol() public view returns (string memory){\n    return _symbol;\n  }\n\n  /*\n    Return Decimal Places to use\n  */\n  function decimals() public view returns (uint8) {\n    return 18;\n  }\n\n  /* \n    Return Total Supply\n  */\n  function totalSupply() public view returns (uint256) {\n    return _totalSupply;\n  }\n\n  /* \n    Returns the amount of tokens owned by `account`.\n  */\n  // TODO: do we really want this to be public?\n  function balanceOf(address account) public view returns (uint256) {\n    return _balances[account];\n  }\n\n  /* \n    Public function for transfer()\n  */\n  function transfer(address to, uint256 amount) public returns (bool){\n    address from = msg.sender;  // callers address\n    _transfer(from, to, amount);\n    return true;\n  }\n\n  /* \n    Transfer token from one address to another\n  */\n  function _transfer(address from, address to, uint256 amount) internal {\n\n    // address from = msg.sender;  // callers address\n    require(from != address(0), \"ERC20: transfer from the zero address\");\n    require(to != address(0), \"ERC20: transfer to the zero address\");\n\n      // _beforeTokenTransfer(from, to, amount);\n\n    uint256 fromBalance = _balances[from];\n    require(fromBalance >= amount, \"ERC20: transfer amount exceeds balance\");\n\n    _balances[from] = fromBalance - amount;\n    _balances[to] += amount;\n\n    // TODO: test contract; what would happen if I don't emit the Transfer() event?\n    emit Transfer(from, to, amount);\n\n  }\n\n\n  /* \n    Mint Tokens --> publically available for everyone\n  */\n  function mint(address account, uint256 amount) public {\n    require(account != address(0), \"ERC20: mint to the zero address\");\n\n    _totalSupply += amount;\n    _balances[account] += amount;\n    emit Transfer(address(0), account, amount);\n\n  }\n\n\n\n}\n\n\n\n\n",
  "sourcePath": "/Users/rahul/Documents/main/personal_learning_projects/fundamentals/smart_contract_tut/contracts/BasicERC20.sol",
  "compiler": {
    "name": "solc",
    "version": "0.8.16+commit.07a7930e.Emscripten.clang"
  },
  "schemaVersion": "3.4.10",
  "updatedAt": "2022-09-16T12:48:18.276Z",
  "networkType": "ethereum",
  "devdoc": {
    "kind": "dev",
    "methods": {},
    "version": 1
  },
  "userdoc": {
    "kind": "user",
    "methods": {},
    "version": 1
  }
}