{
  "contractName": "MyToken",
  "abi": [
    {
      "inputs": [],
      "stateMutability": "nonpayable",
      "type": "constructor"
    },
    {
      "anonymous": false,
      "inputs": [
        {
          "indexed": true,
          "internalType": "address",
          "name": "owner",
          "type": "address"
        },
        {
          "indexed": true,
          "internalType": "address",
          "name": "approved",
          "type": "address"
        },
        {
          "indexed": true,
          "internalType": "uint256",
          "name": "tokenId",
          "type": "uint256"
        }
      ],
      "name": "Approval",
      "type": "event"
    },
    {
      "anonymous": false,
      "inputs": [
        {
          "indexed": true,
          "internalType": "address",
          "name": "owner",
          "type": "address"
        },
        {
          "indexed": true,
          "internalType": "address",
          "name": "operator",
          "type": "address"
        },
        {
          "indexed": false,
          "internalType": "bool",
          "name": "approved",
          "type": "bool"
        }
      ],
      "name": "ApprovalForAll",
      "type": "event"
    },
    {
      "anonymous": false,
      "inputs": [
        {
          "indexed": true,
          "internalType": "address",
          "name": "previousOwner",
          "type": "address"
        },
        {
          "indexed": true,
          "internalType": "address",
          "name": "newOwner",
          "type": "address"
        }
      ],
      "name": "OwnershipTransferred",
      "type": "event"
    },
    {
      "anonymous": false,
      "inputs": [
        {
          "indexed": false,
          "internalType": "address",
          "name": "account",
          "type": "address"
        }
      ],
      "name": "Paused",
      "type": "event"
    },
    {
      "anonymous": false,
      "inputs": [
        {
          "indexed": true,
          "internalType": "address",
          "name": "from",
          "type": "address"
        },
        {
          "indexed": true,
          "internalType": "address",
          "name": "to",
          "type": "address"
        },
        {
          "indexed": true,
          "internalType": "uint256",
          "name": "tokenId",
          "type": "uint256"
        }
      ],
      "name": "Transfer",
      "type": "event"
    },
    {
      "anonymous": false,
      "inputs": [
        {
          "indexed": false,
          "internalType": "address",
          "name": "account",
          "type": "address"
        }
      ],
      "name": "Unpaused",
      "type": "event"
    },
    {
      "inputs": [
        {
          "internalType": "address",
          "name": "to",
          "type": "address"
        },
        {
          "internalType": "uint256",
          "name": "tokenId",
          "type": "uint256"
        }
      ],
      "name": "approve",
      "outputs": [],
      "stateMutability": "nonpayable",
      "type": "function"
    },
    {
      "inputs": [
        {
          "internalType": "address",
          "name": "owner",
          "type": "address"
        }
      ],
      "name": "balanceOf",
      "outputs": [
        {
          "internalType": "uint256",
          "name": "",
          "type": "uint256"
        }
      ],
      "stateMutability": "view",
      "type": "function",
      "constant": true
    },
    {
      "inputs": [
        {
          "internalType": "uint256",
          "name": "tokenId",
          "type": "uint256"
        }
      ],
      "name": "burn",
      "outputs": [],
      "stateMutability": "nonpayable",
      "type": "function"
    },
    {
      "inputs": [
        {
          "internalType": "uint256",
          "name": "tokenId",
          "type": "uint256"
        }
      ],
      "name": "getApproved",
      "outputs": [
        {
          "internalType": "address",
          "name": "",
          "type": "address"
        }
      ],
      "stateMutability": "view",
      "type": "function",
      "constant": true
    },
    {
      "inputs": [
        {
          "internalType": "address",
          "name": "owner",
          "type": "address"
        },
        {
          "internalType": "address",
          "name": "operator",
          "type": "address"
        }
      ],
      "name": "isApprovedForAll",
      "outputs": [
        {
          "internalType": "bool",
          "name": "",
          "type": "bool"
        }
      ],
      "stateMutability": "view",
      "type": "function",
      "constant": true
    },
    {
      "inputs": [],
      "name": "name",
      "outputs": [
        {
          "internalType": "string",
          "name": "",
          "type": "string"
        }
      ],
      "stateMutability": "view",
      "type": "function",
      "constant": true
    },
    {
      "inputs": [],
      "name": "owner",
      "outputs": [
        {
          "internalType": "address",
          "name": "",
          "type": "address"
        }
      ],
      "stateMutability": "view",
      "type": "function",
      "constant": true
    },
    {
      "inputs": [
        {
          "internalType": "uint256",
          "name": "tokenId",
          "type": "uint256"
        }
      ],
      "name": "ownerOf",
      "outputs": [
        {
          "internalType": "address",
          "name": "",
          "type": "address"
        }
      ],
      "stateMutability": "view",
      "type": "function",
      "constant": true
    },
    {
      "inputs": [],
      "name": "paused",
      "outputs": [
        {
          "internalType": "bool",
          "name": "",
          "type": "bool"
        }
      ],
      "stateMutability": "view",
      "type": "function",
      "constant": true
    },
    {
      "inputs": [],
      "name": "renounceOwnership",
      "outputs": [],
      "stateMutability": "nonpayable",
      "type": "function"
    },
    {
      "inputs": [
        {
          "internalType": "address",
          "name": "from",
          "type": "address"
        },
        {
          "internalType": "address",
          "name": "to",
          "type": "address"
        },
        {
          "internalType": "uint256",
          "name": "tokenId",
          "type": "uint256"
        }
      ],
      "name": "safeTransferFrom",
      "outputs": [],
      "stateMutability": "nonpayable",
      "type": "function"
    },
    {
      "inputs": [
        {
          "internalType": "address",
          "name": "from",
          "type": "address"
        },
        {
          "internalType": "address",
          "name": "to",
          "type": "address"
        },
        {
          "internalType": "uint256",
          "name": "tokenId",
          "type": "uint256"
        },
        {
          "internalType": "bytes",
          "name": "data",
          "type": "bytes"
        }
      ],
      "name": "safeTransferFrom",
      "outputs": [],
      "stateMutability": "nonpayable",
      "type": "function"
    },
    {
      "inputs": [
        {
          "internalType": "address",
          "name": "operator",
          "type": "address"
        },
        {
          "internalType": "bool",
          "name": "approved",
          "type": "bool"
        }
      ],
      "name": "setApprovalForAll",
      "outputs": [],
      "stateMutability": "nonpayable",
      "type": "function"
    },
    {
      "inputs": [],
      "name": "symbol",
      "outputs": [
        {
          "internalType": "string",
          "name": "",
          "type": "string"
        }
      ],
      "stateMutability": "view",
      "type": "function",
      "constant": true
    },
    {
      "inputs": [
        {
          "internalType": "uint256",
          "name": "index",
          "type": "uint256"
        }
      ],
      "name": "tokenByIndex",
      "outputs": [
        {
          "internalType": "uint256",
          "name": "",
          "type": "uint256"
        }
      ],
      "stateMutability": "view",
      "type": "function",
      "constant": true
    },
    {
      "inputs": [
        {
          "internalType": "address",
          "name": "owner",
          "type": "address"
        },
        {
          "internalType": "uint256",
          "name": "index",
          "type": "uint256"
        }
      ],
      "name": "tokenOfOwnerByIndex",
      "outputs": [
        {
          "internalType": "uint256",
          "name": "",
          "type": "uint256"
        }
      ],
      "stateMutability": "view",
      "type": "function",
      "constant": true
    },
    {
      "inputs": [],
      "name": "totalSupply",
      "outputs": [
        {
          "internalType": "uint256",
          "name": "",
          "type": "uint256"
        }
      ],
      "stateMutability": "view",
      "type": "function",
      "constant": true
    },
    {
      "inputs": [
        {
          "internalType": "address",
          "name": "from",
          "type": "address"
        },
        {
          "internalType": "address",
          "name": "to",
          "type": "address"
        },
        {
          "internalType": "uint256",
          "name": "tokenId",
          "type": "uint256"
        }
      ],
      "name": "transferFrom",
      "outputs": [],
      "stateMutability": "nonpayable",
      "type": "function"
    },
    {
      "inputs": [
        {
          "internalType": "address",
          "name": "newOwner",
          "type": "address"
        }
      ],
      "name": "transferOwnership",
      "outputs": [],
      "stateMutability": "nonpayable",
      "type": "function"
    },
    {
      "inputs": [],
      "name": "pause",
      "outputs": [],
      "stateMutability": "nonpayable",
      "type": "function"
    },
    {
      "inputs": [],
      "name": "unpause",
      "outputs": [],
      "stateMutability": "nonpayable",
      "type": "function"
    },
    {
      "inputs": [
        {
          "internalType": "address",
          "name": "to",
          "type": "address"
        },
        {
          "internalType": "string",
          "name": "uri",
          "type": "string"
        }
      ],
      "name": "safeMint",
      "outputs": [],
      "stateMutability": "nonpayable",
      "type": "function"
    },
    {
      "inputs": [
        {
          "internalType": "uint256",
          "name": "tokenId",
          "type": "uint256"
        }
      ],
      "name": "tokenURI",
      "outputs": [
        {
          "internalType": "string",
          "name": "",
          "type": "string"
        }
      ],
      "stateMutability": "view",
      "type": "function",
      "constant": true
    },
    {
      "inputs": [
        {
          "internalType": "bytes4",
          "name": "interfaceId",
          "type": "bytes4"
        }
      ],
      "name": "supportsInterface",
      "outputs": [
        {
          "internalType": "bool",
          "name": "",
          "type": "bool"
        }
      ],
      "stateMutability": "view",
      "type": "function",
      "constant": true
    },
    {
      "inputs": [
        {
          "internalType": "address",
          "name": "from",
          "type": "address"
        }
      ],
      "name": "getOwnedTokenIds",
      "outputs": [
        {
          "internalType": "uint256[]",
          "name": "",
          "type": "uint256[]"
        }
      ],
      "stateMutability": "nonpayable",
      "type": "function"
    }
  ],
  "bytecode": "0x60806040526000600e553480156200001657600080fd5b506040518060400160405280600781526020017f4d79546f6b656e000000000000000000000000000000000000000000000000008152506040518060400160405280600381526020017f4d544b0000000000000000000000000000000000000000000000000000000000815250816000908162000094919062000432565b508060019081620000a6919062000432565b5050506000600b60006101000a81548160ff021916908315150217905550620000e4620000d8620000ea60201b60201c565b620000f260201b60201c565b62000519565b600033905090565b6000600b60019054906101000a900473ffffffffffffffffffffffffffffffffffffffff16905081600b60016101000a81548173ffffffffffffffffffffffffffffffffffffffff021916908373ffffffffffffffffffffffffffffffffffffffff1602179055508173ffffffffffffffffffffffffffffffffffffffff168173ffffffffffffffffffffffffffffffffffffffff167f8be0079c531659141344cd1fd0a4f28419497f9722a3daafe3b4186f6b6457e060405160405180910390a35050565b600081519050919050565b7f4e487b7100000000000000000000000000000000000000000000000000000000600052604160045260246000fd5b7f4e487b7100000000000000000000000000000000000000000000000000000000600052602260045260246000fd5b600060028204905060018216806200023a57607f821691505b60208210810362000250576200024f620001f2565b5b50919050565b60008190508160005260206000209050919050565b60006020601f8301049050919050565b600082821b905092915050565b600060088302620002ba7fffffffffffffffffffffffffffffffffffffffffffffffffffffffffffffffff826200027b565b620002c686836200027b565b95508019841693508086168417925050509392505050565b6000819050919050565b6000819050919050565b6000620003136200030d6200030784620002de565b620002e8565b620002de565b9050919050565b6000819050919050565b6200032f83620002f2565b620003476200033e826200031a565b84845462000288565b825550505050565b600090565b6200035e6200034f565b6200036b81848462000324565b505050565b5b8181101562000393576200038760008262000354565b60018101905062000371565b5050565b601f821115620003e257620003ac8162000256565b620003b7846200026b565b81016020851015620003c7578190505b620003df620003d6856200026b565b83018262000370565b50505b505050565b600082821c905092915050565b60006200040760001984600802620003e7565b1980831691505092915050565b6000620004228383620003f4565b9150826002028217905092915050565b6200043d82620001b8565b67ffffffffffffffff811115620004595762000458620001c3565b5b62000465825462000221565b6200047282828562000397565b600060209050601f831160018114620004aa576000841562000495578287015190505b620004a1858262000414565b86555062000511565b601f198416620004ba8662000256565b60005b82811015620004e457848901518255600182019150602085019450602081019050620004bd565b8683101562000504578489015162000500601f891682620003f4565b8355505b6001600288020188555050505b505050505050565b613dda80620005296000396000f3fe608060405234801561001057600080fd5b50600436106101735760003560e01c80635c975abb116100de57806395d89b4111610097578063c87b56dd11610071578063c87b56dd14610424578063d204c45e14610454578063e985e9c514610470578063f2fde38b146104a057610173565b806395d89b41146103ce578063a22cb465146103ec578063b88d4fde1461040857610173565b80635c975abb1461031e5780636352211e1461033c57806370a082311461036c578063715018a61461039c5780638456cb59146103a65780638da5cb5b146103b057610173565b80632f745c59116101305780632f745c591461024c5780633f4ba83a1461027c57806342842e0e1461028657806342966c68146102a25780634f6ccce7146102be5780634fac7e41146102ee57610173565b806301ffc9a71461017857806306fdde03146101a8578063081812fc146101c6578063095ea7b3146101f657806318160ddd1461021257806323b872dd14610230575b600080fd5b610192600480360381019061018d9190612750565b6104bc565b60405161019f9190612798565b60405180910390f35b6101b06104ce565b6040516101bd9190612843565b60405180910390f35b6101e060048036038101906101db919061289b565b610560565b6040516101ed9190612909565b60405180910390f35b610210600480360381019061020b9190612950565b6105a6565b005b61021a6106bd565b604051610227919061299f565b60405180910390f35b61024a600480360381019061024591906129ba565b6106ca565b005b61026660048036038101906102619190612950565b61072a565b604051610273919061299f565b60405180910390f35b6102846107cf565b005b6102a0600480360381019061029b91906129ba565b6107e1565b005b6102bc60048036038101906102b7919061289b565b610801565b005b6102d860048036038101906102d3919061289b565b61085d565b6040516102e5919061299f565b60405180910390f35b61030860048036038101906103039190612a0d565b6108ce565b6040516103159190612af8565b60405180910390f35b61032661096d565b6040516103339190612798565b60405180910390f35b6103566004803603810190610351919061289b565b610984565b6040516103639190612909565b60405180910390f35b61038660048036038101906103819190612a0d565b610a35565b604051610393919061299f565b60405180910390f35b6103a4610aec565b005b6103ae610b00565b005b6103b8610b12565b6040516103c59190612909565b60405180910390f35b6103d6610b3c565b6040516103e39190612843565b60405180910390f35b61040660048036038101906104019190612b46565b610bce565b005b610422600480360381019061041d9190612cbb565b610be4565b005b61043e6004803603810190610439919061289b565b610c46565b60405161044b9190612843565b60405180910390f35b61046e60048036038101906104699190612ddf565b610c58565b005b61048a60048036038101906104859190612e3b565b610d4c565b6040516104979190612798565b60405180910390f35b6104ba60048036038101906104b59190612a0d565b610de0565b005b60006104c782610e63565b9050919050565b6060600080546104dd90612eaa565b80601f016020809104026020016040519081016040528092919081815260200182805461050990612eaa565b80156105565780601f1061052b57610100808354040283529160200191610556565b820191906000526020600020905b81548152906001019060200180831161053957829003601f168201915b5050505050905090565b600061056b82610edd565b6004600083815260200190815260200160002060009054906101000a900473ffffffffffffffffffffffffffffffffffffffff169050919050565b60006105b182610984565b90508073ffffffffffffffffffffffffffffffffffffffff168373ffffffffffffffffffffffffffffffffffffffff1603610621576040517f08c379a000000000000000000000000000000000000000000000000000000000815260040161061890612f4d565b60405180910390fd5b8073ffffffffffffffffffffffffffffffffffffffff16610640610f28565b73ffffffffffffffffffffffffffffffffffffffff16148061066f575061066e81610669610f28565b610d4c565b5b6106ae576040517f08c379a00000000000000000000000000000000000000000000000000000000081526004016106a590612fdf565b60405180910390fd5b6106b88383610f30565b505050565b6000600880549050905090565b6106db6106d5610f28565b82610fe9565b61071a576040517f08c379a000000000000000000000000000000000000000000000000000000000815260040161071190613071565b60405180910390fd5b61072583838361107e565b505050565b600061073583610a35565b8210610776576040517f08c379a000000000000000000000000000000000000000000000000000000000815260040161076d90613103565b60405180910390fd5b600660008473ffffffffffffffffffffffffffffffffffffffff1673ffffffffffffffffffffffffffffffffffffffff168152602001908152602001600020600083815260200190815260200160002054905092915050565b6107d76112e4565b6107df611362565b565b6107fc83838360405180602001604052806000815250610be4565b505050565b61081261080c610f28565b82610fe9565b610851576040517f08c379a000000000000000000000000000000000000000000000000000000000815260040161084890613071565b60405180910390fd5b61085a816113c5565b50565b60006108676106bd565b82106108a8576040517f08c379a000000000000000000000000000000000000000000000000000000000815260040161089f90613195565b60405180910390fd5b600882815481106108bc576108bb6131b5565b5b90600052602060002001549050919050565b60606108d86112e4565b600d60008373ffffffffffffffffffffffffffffffffffffffff1673ffffffffffffffffffffffffffffffffffffffff16815260200190815260200160002080548060200260200160405190810160405280929190818152602001828054801561096157602002820191906000526020600020905b81548152602001906001019080831161094d575b50505050509050919050565b6000600b60009054906101000a900460ff16905090565b6000806002600084815260200190815260200160002060009054906101000a900473ffffffffffffffffffffffffffffffffffffffff169050600073ffffffffffffffffffffffffffffffffffffffff168173ffffffffffffffffffffffffffffffffffffffff1603610a2c576040517f08c379a0000000000000000000000000000000000000000000000000000000008152600401610a2390613230565b60405180910390fd5b80915050919050565b60008073ffffffffffffffffffffffffffffffffffffffff168273ffffffffffffffffffffffffffffffffffffffff1603610aa5576040517f08c379a0000000000000000000000000000000000000000000000000000000008152600401610a9c906132c2565b60405180910390fd5b600360008373ffffffffffffffffffffffffffffffffffffffff1673ffffffffffffffffffffffffffffffffffffffff168152602001908152602001600020549050919050565b610af46112e4565b610afe60006113d1565b565b610b086112e4565b610b10611497565b565b6000600b60019054906101000a900473ffffffffffffffffffffffffffffffffffffffff16905090565b606060018054610b4b90612eaa565b80601f0160208091040260200160405190810160405280929190818152602001828054610b7790612eaa565b8015610bc45780601f10610b9957610100808354040283529160200191610bc4565b820191906000526020600020905b815481529060010190602001808311610ba757829003601f168201915b5050505050905090565b610be0610bd9610f28565b83836114fa565b5050565b610bf5610bef610f28565b83610fe9565b610c34576040517f08c379a0000000000000000000000000000000000000000000000000000000008152600401610c2b90613071565b60405180910390fd5b610c4084848484611666565b50505050565b6060610c51826116c2565b9050919050565b610c606112e4565b6000610c6c600c6117d4565b9050610c78600c6117e2565b610c8283826117f8565b610c8c8183611816565b6000600d60008573ffffffffffffffffffffffffffffffffffffffff1673ffffffffffffffffffffffffffffffffffffffff16815260200190815260200160002090508082908060018154018082558091505060019003906000526020600020016000909190919091505580600d60008673ffffffffffffffffffffffffffffffffffffffff1673ffffffffffffffffffffffffffffffffffffffff168152602001908152602001600020908054610d45929190612635565b5050505050565b6000600560008473ffffffffffffffffffffffffffffffffffffffff1673ffffffffffffffffffffffffffffffffffffffff16815260200190815260200160002060008373ffffffffffffffffffffffffffffffffffffffff1673ffffffffffffffffffffffffffffffffffffffff16815260200190815260200160002060009054906101000a900460ff16905092915050565b610de86112e4565b600073ffffffffffffffffffffffffffffffffffffffff168173ffffffffffffffffffffffffffffffffffffffff1603610e57576040517f08c379a0000000000000000000000000000000000000000000000000000000008152600401610e4e90613354565b60405180910390fd5b610e60816113d1565b50565b60007f780e9d63000000000000000000000000000000000000000000000000000000007bffffffffffffffffffffffffffffffffffffffffffffffffffffffff1916827bffffffffffffffffffffffffffffffffffffffffffffffffffffffff19161480610ed65750610ed582611883565b5b9050919050565b610ee681611965565b610f25576040517f08c379a0000000000000000000000000000000000000000000000000000000008152600401610f1c90613230565b60405180910390fd5b50565b600033905090565b816004600083815260200190815260200160002060006101000a81548173ffffffffffffffffffffffffffffffffffffffff021916908373ffffffffffffffffffffffffffffffffffffffff160217905550808273ffffffffffffffffffffffffffffffffffffffff16610fa383610984565b73ffffffffffffffffffffffffffffffffffffffff167f8c5be1e5ebec7d5bd14f71427d1e84f3dd0314c0f7b2291e5b200ac8c7c3b92560405160405180910390a45050565b600080610ff583610984565b90508073ffffffffffffffffffffffffffffffffffffffff168473ffffffffffffffffffffffffffffffffffffffff16148061103757506110368185610d4c565b5b8061107557508373ffffffffffffffffffffffffffffffffffffffff1661105d84610560565b73ffffffffffffffffffffffffffffffffffffffff16145b91505092915050565b8273ffffffffffffffffffffffffffffffffffffffff1661109e82610984565b73ffffffffffffffffffffffffffffffffffffffff16146110f4576040517f08c379a00000000000000000000000000000000000000000000000000000000081526004016110eb906133e6565b60405180910390fd5b600073ffffffffffffffffffffffffffffffffffffffff168273ffffffffffffffffffffffffffffffffffffffff1603611163576040517f08c379a000000000000000000000000000000000000000000000000000000000815260040161115a90613478565b60405180910390fd5b61116e8383836119d1565b611179600082610f30565b6001600360008573ffffffffffffffffffffffffffffffffffffffff1673ffffffffffffffffffffffffffffffffffffffff16815260200190815260200160002060008282546111c991906134c7565b925050819055506001600360008473ffffffffffffffffffffffffffffffffffffffff1673ffffffffffffffffffffffffffffffffffffffff168152602001908152602001600020600082825461122091906134fb565b92505081905550816002600083815260200190815260200160002060006101000a81548173ffffffffffffffffffffffffffffffffffffffff021916908373ffffffffffffffffffffffffffffffffffffffff160217905550808273ffffffffffffffffffffffffffffffffffffffff168473ffffffffffffffffffffffffffffffffffffffff167fddf252ad1be2c89b69c2b068fc378daa952ba7f163c4a11628f55a4df523b3ef60405160405180910390a46112df8383836119e9565b505050565b6112ec610f28565b73ffffffffffffffffffffffffffffffffffffffff1661130a610b12565b73ffffffffffffffffffffffffffffffffffffffff1614611360576040517f08c379a00000000000000000000000000000000000000000000000000000000081526004016113579061357b565b60405180910390fd5b565b61136a6119ee565b6000600b60006101000a81548160ff0219169083151502179055507f5db9ee0a495bf2e6ff9c91a7834c1ba4fdd244a5e8aa4e537bd38aeae4b073aa6113ae610f28565b6040516113bb9190612909565b60405180910390a1565b6113ce81611a37565b50565b6000600b60019054906101000a900473ffffffffffffffffffffffffffffffffffffffff16905081600b60016101000a81548173ffffffffffffffffffffffffffffffffffffffff021916908373ffffffffffffffffffffffffffffffffffffffff1602179055508173ffffffffffffffffffffffffffffffffffffffff168173ffffffffffffffffffffffffffffffffffffffff167f8be0079c531659141344cd1fd0a4f28419497f9722a3daafe3b4186f6b6457e060405160405180910390a35050565b61149f611a8a565b6001600b60006101000a81548160ff0219169083151502179055507f62e78cea01bee320cd4e420270b5ea74000d11b0c9f74754ebdbfc544b05a2586114e3610f28565b6040516114f09190612909565b60405180910390a1565b8173ffffffffffffffffffffffffffffffffffffffff168373ffffffffffffffffffffffffffffffffffffffff1603611568576040517f08c379a000000000000000000000000000000000000000000000000000000000815260040161155f906135e7565b60405180910390fd5b80600560008573ffffffffffffffffffffffffffffffffffffffff1673ffffffffffffffffffffffffffffffffffffffff16815260200190815260200160002060008473ffffffffffffffffffffffffffffffffffffffff1673ffffffffffffffffffffffffffffffffffffffff16815260200190815260200160002060006101000a81548160ff0219169083151502179055508173ffffffffffffffffffffffffffffffffffffffff168373ffffffffffffffffffffffffffffffffffffffff167f17307eab39ab6107e8899845ad3d59bd9653f200f220920489ca2b5937696c31836040516116599190612798565b60405180910390a3505050565b61167184848461107e565b61167d84848484611ad4565b6116bc576040517f08c379a00000000000000000000000000000000000000000000000000000000081526004016116b390613679565b60405180910390fd5b50505050565b60606116cd82610edd565b6000600a600084815260200190815260200160002080546116ed90612eaa565b80601f016020809104026020016040519081016040528092919081815260200182805461171990612eaa565b80156117665780601f1061173b57610100808354040283529160200191611766565b820191906000526020600020905b81548152906001019060200180831161174957829003601f168201915b505050505090506000611777611c5b565b9050600081510361178c5781925050506117cf565b6000825111156117c15780826040516020016117a99291906136d5565b604051602081830303815290604052925050506117cf565b6117ca84611c72565b925050505b919050565b600081600001549050919050565b6001816000016000828254019250508190555050565b611812828260405180602001604052806000815250611cda565b5050565b61181f82611965565b61185e576040517f08c379a00000000000000000000000000000000000000000000000000000000081526004016118559061376b565b60405180910390fd5b80600a6000848152602001908152602001600020908161187e9190613937565b505050565b60007f80ac58cd000000000000000000000000000000000000000000000000000000007bffffffffffffffffffffffffffffffffffffffffffffffffffffffff1916827bffffffffffffffffffffffffffffffffffffffffffffffffffffffff1916148061194e57507f5b5e139f000000000000000000000000000000000000000000000000000000007bffffffffffffffffffffffffffffffffffffffffffffffffffffffff1916827bffffffffffffffffffffffffffffffffffffffffffffffffffffffff1916145b8061195e575061195d82611d35565b5b9050919050565b60008073ffffffffffffffffffffffffffffffffffffffff166002600084815260200190815260200160002060009054906101000a900473ffffffffffffffffffffffffffffffffffffffff1673ffffffffffffffffffffffffffffffffffffffff1614159050919050565b6119d9611a8a565b6119e4838383611d9f565b505050565b505050565b6119f661096d565b611a35576040517f08c379a0000000000000000000000000000000000000000000000000000000008152600401611a2c90613a55565b60405180910390fd5b565b611a4081611eb1565b6000600a60008381526020019081526020016000208054611a6090612eaa565b905014611a8757600a60008281526020019081526020016000206000611a869190612687565b5b50565b611a9261096d565b15611ad2576040517f08c379a0000000000000000000000000000000000000000000000000000000008152600401611ac990613ac1565b60405180910390fd5b565b6000611af58473ffffffffffffffffffffffffffffffffffffffff16611fce565b15611c4e578373ffffffffffffffffffffffffffffffffffffffff1663150b7a02611b1e610f28565b8786866040518563ffffffff1660e01b8152600401611b409493929190613b36565b6020604051808303816000875af1925050508015611b7c57506040513d601f19601f82011682018060405250810190611b799190613b97565b60015b611bfe573d8060008114611bac576040519150601f19603f3d011682016040523d82523d6000602084013e611bb1565b606091505b506000815103611bf6576040517f08c379a0000000000000000000000000000000000000000000000000000000008152600401611bed90613679565b60405180910390fd5b805181602001fd5b63150b7a0260e01b7bffffffffffffffffffffffffffffffffffffffffffffffffffffffff1916817bffffffffffffffffffffffffffffffffffffffffffffffffffffffff191614915050611c53565b600190505b949350505050565b606060405180602001604052806000815250905090565b6060611c7d82610edd565b6000611c87611c5b565b90506000815111611ca75760405180602001604052806000815250611cd2565b80611cb184611ff1565b604051602001611cc29291906136d5565b6040516020818303038152906040525b915050919050565b611ce48383612151565b611cf16000848484611ad4565b611d30576040517f08c379a0000000000000000000000000000000000000000000000000000000008152600401611d2790613679565b60405180910390fd5b505050565b60007f01ffc9a7000000000000000000000000000000000000000000000000000000007bffffffffffffffffffffffffffffffffffffffffffffffffffffffff1916827bffffffffffffffffffffffffffffffffffffffffffffffffffffffff1916149050919050565b611daa83838361232a565b600073ffffffffffffffffffffffffffffffffffffffff168373ffffffffffffffffffffffffffffffffffffffff1603611dec57611de78161232f565b611e2b565b8173ffffffffffffffffffffffffffffffffffffffff168373ffffffffffffffffffffffffffffffffffffffff1614611e2a57611e298382612378565b5b5b600073ffffffffffffffffffffffffffffffffffffffff168273ffffffffffffffffffffffffffffffffffffffff1603611e6d57611e68816124e5565b611eac565b8273ffffffffffffffffffffffffffffffffffffffff168273ffffffffffffffffffffffffffffffffffffffff1614611eab57611eaa82826125b6565b5b5b505050565b6000611ebc82610984565b9050611eca816000846119d1565b611ed5600083610f30565b6001600360008373ffffffffffffffffffffffffffffffffffffffff1673ffffffffffffffffffffffffffffffffffffffff1681526020019081526020016000206000828254611f2591906134c7565b925050819055506002600083815260200190815260200160002060006101000a81549073ffffffffffffffffffffffffffffffffffffffff021916905581600073ffffffffffffffffffffffffffffffffffffffff168273ffffffffffffffffffffffffffffffffffffffff167fddf252ad1be2c89b69c2b068fc378daa952ba7f163c4a11628f55a4df523b3ef60405160405180910390a4611fca816000846119e9565b5050565b6000808273ffffffffffffffffffffffffffffffffffffffff163b119050919050565b606060008203612038576040518060400160405280600181526020017f3000000000000000000000000000000000000000000000000000000000000000815250905061214c565b600082905060005b6000821461206a57808061205390613bc4565b915050600a826120639190613c3b565b9150612040565b60008167ffffffffffffffff81111561208657612085612b90565b5b6040519080825280601f01601f1916602001820160405280156120b85781602001600182028036833780820191505090505b5090505b60008514612145576001826120d191906134c7565b9150600a856120e09190613c6c565b60306120ec91906134fb565b60f81b818381518110612102576121016131b5565b5b60200101907effffffffffffffffffffffffffffffffffffffffffffffffffffffffffffff1916908160001a905350600a8561213e9190613c3b565b94506120bc565b8093505050505b919050565b600073ffffffffffffffffffffffffffffffffffffffff168273ffffffffffffffffffffffffffffffffffffffff16036121c0576040517f08c379a00000000000000000000000000000000000000000000000000000000081526004016121b790613ce9565b60405180910390fd5b6121c981611965565b15612209576040517f08c379a000000000000000000000000000000000000000000000000000000000815260040161220090613d55565b60405180910390fd5b612215600083836119d1565b6001600360008473ffffffffffffffffffffffffffffffffffffffff1673ffffffffffffffffffffffffffffffffffffffff168152602001908152602001600020600082825461226591906134fb565b92505081905550816002600083815260200190815260200160002060006101000a81548173ffffffffffffffffffffffffffffffffffffffff021916908373ffffffffffffffffffffffffffffffffffffffff160217905550808273ffffffffffffffffffffffffffffffffffffffff16600073ffffffffffffffffffffffffffffffffffffffff167fddf252ad1be2c89b69c2b068fc378daa952ba7f163c4a11628f55a4df523b3ef60405160405180910390a4612326600083836119e9565b5050565b505050565b6008805490506009600083815260200190815260200160002081905550600881908060018154018082558091505060019003906000526020600020016000909190919091505550565b6000600161238584610a35565b61238f91906134c7565b9050600060076000848152602001908152602001600020549050818114612474576000600660008673ffffffffffffffffffffffffffffffffffffffff1673ffffffffffffffffffffffffffffffffffffffff168152602001908152602001600020600084815260200190815260200160002054905080600660008773ffffffffffffffffffffffffffffffffffffffff1673ffffffffffffffffffffffffffffffffffffffff168152602001908152602001600020600084815260200190815260200160002081905550816007600083815260200190815260200160002081905550505b6007600084815260200190815260200160002060009055600660008573ffffffffffffffffffffffffffffffffffffffff1673ffffffffffffffffffffffffffffffffffffffff16815260200190815260200160002060008381526020019081526020016000206000905550505050565b600060016008805490506124f991906134c7565b9050600060096000848152602001908152602001600020549050600060088381548110612529576125286131b5565b5b90600052602060002001549050806008838154811061254b5761254a6131b5565b5b90600052602060002001819055508160096000838152602001908152602001600020819055506009600085815260200190815260200160002060009055600880548061259a57612599613d75565b5b6001900381819060005260206000200160009055905550505050565b60006125c183610a35565b905081600660008573ffffffffffffffffffffffffffffffffffffffff1673ffffffffffffffffffffffffffffffffffffffff168152602001908152602001600020600083815260200190815260200160002081905550806007600084815260200190815260200160002081905550505050565b8280548282559060005260206000209081019282156126765760005260206000209182015b8281111561267557825482559160010191906001019061265a565b5b50905061268391906126c7565b5090565b50805461269390612eaa565b6000825580601f106126a557506126c4565b601f0160209004906000526020600020908101906126c391906126c7565b5b50565b5b808211156126e05760008160009055506001016126c8565b5090565b6000604051905090565b600080fd5b600080fd5b60007fffffffff0000000000000000000000000000000000000000000000000000000082169050919050565b61272d816126f8565b811461273857600080fd5b50565b60008135905061274a81612724565b92915050565b600060208284031215612766576127656126ee565b5b60006127748482850161273b565b91505092915050565b60008115159050919050565b6127928161277d565b82525050565b60006020820190506127ad6000830184612789565b92915050565b600081519050919050565b600082825260208201905092915050565b60005b838110156127ed5780820151818401526020810190506127d2565b60008484015250505050565b6000601f19601f8301169050919050565b6000612815826127b3565b61281f81856127be565b935061282f8185602086016127cf565b612838816127f9565b840191505092915050565b6000602082019050818103600083015261285d818461280a565b905092915050565b6000819050919050565b61287881612865565b811461288357600080fd5b50565b6000813590506128958161286f565b92915050565b6000602082840312156128b1576128b06126ee565b5b60006128bf84828501612886565b91505092915050565b600073ffffffffffffffffffffffffffffffffffffffff82169050919050565b60006128f3826128c8565b9050919050565b612903816128e8565b82525050565b600060208201905061291e60008301846128fa565b92915050565b61292d816128e8565b811461293857600080fd5b50565b60008135905061294a81612924565b92915050565b60008060408385031215612967576129666126ee565b5b60006129758582860161293b565b925050602061298685828601612886565b9150509250929050565b61299981612865565b82525050565b60006020820190506129b46000830184612990565b92915050565b6000806000606084860312156129d3576129d26126ee565b5b60006129e18682870161293b565b93505060206129f28682870161293b565b9250506040612a0386828701612886565b9150509250925092565b600060208284031215612a2357612a226126ee565b5b6000612a318482850161293b565b91505092915050565b600081519050919050565b600082825260208201905092915050565b6000819050602082019050919050565b612a6f81612865565b82525050565b6000612a818383612a66565b60208301905092915050565b6000602082019050919050565b6000612aa582612a3a565b612aaf8185612a45565b9350612aba83612a56565b8060005b83811015612aeb578151612ad28882612a75565b9750612add83612a8d565b925050600181019050612abe565b5085935050505092915050565b60006020820190508181036000830152612b128184612a9a565b905092915050565b612b238161277d565b8114612b2e57600080fd5b50565b600081359050612b4081612b1a565b92915050565b60008060408385031215612b5d57612b5c6126ee565b5b6000612b6b8582860161293b565b9250506020612b7c85828601612b31565b9150509250929050565b600080fd5b600080fd5b7f4e487b7100000000000000000000000000000000000000000000000000000000600052604160045260246000fd5b612bc8826127f9565b810181811067ffffffffffffffff82111715612be757612be6612b90565b5b80604052505050565b6000612bfa6126e4565b9050612c068282612bbf565b919050565b600067ffffffffffffffff821115612c2657612c25612b90565b5b612c2f826127f9565b9050602081019050919050565b82818337600083830152505050565b6000612c5e612c5984612c0b565b612bf0565b905082815260208101848484011115612c7a57612c79612b8b565b5b612c85848285612c3c565b509392505050565b600082601f830112612ca257612ca1612b86565b5b8135612cb2848260208601612c4b565b91505092915050565b60008060008060808587031215612cd557612cd46126ee565b5b6000612ce38782880161293b565b9450506020612cf48782880161293b565b9350506040612d0587828801612886565b925050606085013567ffffffffffffffff811115612d2657612d256126f3565b5b612d3287828801612c8d565b91505092959194509250565b600067ffffffffffffffff821115612d5957612d58612b90565b5b612d62826127f9565b9050602081019050919050565b6000612d82612d7d84612d3e565b612bf0565b905082815260208101848484011115612d9e57612d9d612b8b565b5b612da9848285612c3c565b509392505050565b600082601f830112612dc657612dc5612b86565b5b8135612dd6848260208601612d6f565b91505092915050565b60008060408385031215612df657612df56126ee565b5b6000612e048582860161293b565b925050602083013567ffffffffffffffff811115612e2557612e246126f3565b5b612e3185828601612db1565b9150509250929050565b60008060408385031215612e5257612e516126ee565b5b6000612e608582860161293b565b9250506020612e718582860161293b565b9150509250929050565b7f4e487b7100000000000000000000000000000000000000000000000000000000600052602260045260246000fd5b60006002820490506001821680612ec257607f821691505b602082108103612ed557612ed4612e7b565b5b50919050565b7f4552433732313a20617070726f76616c20746f2063757272656e74206f776e6560008201527f7200000000000000000000000000000000000000000000000000000000000000602082015250565b6000612f376021836127be565b9150612f4282612edb565b604082019050919050565b60006020820190508181036000830152612f6681612f2a565b9050919050565b7f4552433732313a20617070726f76652063616c6c6572206973206e6f7420746f60008201527f6b656e206f776e6572206e6f7220617070726f76656420666f7220616c6c0000602082015250565b6000612fc9603e836127be565b9150612fd482612f6d565b604082019050919050565b60006020820190508181036000830152612ff881612fbc565b9050919050565b7f4552433732313a2063616c6c6572206973206e6f7420746f6b656e206f776e6560008201527f72206e6f7220617070726f766564000000000000000000000000000000000000602082015250565b600061305b602e836127be565b915061306682612fff565b604082019050919050565b6000602082019050818103600083015261308a8161304e565b9050919050565b7f455243373231456e756d657261626c653a206f776e657220696e646578206f7560008201527f74206f6620626f756e6473000000000000000000000000000000000000000000602082015250565b60006130ed602b836127be565b91506130f882613091565b604082019050919050565b6000602082019050818103600083015261311c816130e0565b9050919050565b7f455243373231456e756d657261626c653a20676c6f62616c20696e646578206f60008201527f7574206f6620626f756e64730000000000000000000000000000000000000000602082015250565b600061317f602c836127be565b915061318a82613123565b604082019050919050565b600060208201905081810360008301526131ae81613172565b9050919050565b7f4e487b7100000000000000000000000000000000000000000000000000000000600052603260045260246000fd5b7f4552433732313a20696e76616c696420746f6b656e2049440000000000000000600082015250565b600061321a6018836127be565b9150613225826131e4565b602082019050919050565b600060208201905081810360008301526132498161320d565b9050919050565b7f4552433732313a2061646472657373207a65726f206973206e6f74206120766160008201527f6c6964206f776e65720000000000000000000000000000000000000000000000602082015250565b60006132ac6029836127be565b91506132b782613250565b604082019050919050565b600060208201905081810360008301526132db8161329f565b9050919050565b7f4f776e61626c653a206e6577206f776e657220697320746865207a65726f206160008201527f6464726573730000000000000000000000000000000000000000000000000000602082015250565b600061333e6026836127be565b9150613349826132e2565b604082019050919050565b6000602082019050818103600083015261336d81613331565b9050919050565b7f4552433732313a207472616e736665722066726f6d20696e636f72726563742060008201527f6f776e6572000000000000000000000000000000000000000000000000000000602082015250565b60006133d06025836127be565b91506133db82613374565b604082019050919050565b600060208201905081810360008301526133ff816133c3565b9050919050565b7f4552433732313a207472616e7366657220746f20746865207a65726f2061646460008201527f7265737300000000000000000000000000000000000000000000000000000000602082015250565b60006134626024836127be565b915061346d82613406565b604082019050919050565b6000602082019050818103600083015261349181613455565b9050919050565b7f4e487b7100000000000000000000000000000000000000000000000000000000600052601160045260246000fd5b60006134d282612865565b91506134dd83612865565b92508282039050818111156134f5576134f4613498565b5b92915050565b600061350682612865565b915061351183612865565b925082820190508082111561352957613528613498565b5b92915050565b7f4f776e61626c653a2063616c6c6572206973206e6f7420746865206f776e6572600082015250565b60006135656020836127be565b91506135708261352f565b602082019050919050565b6000602082019050818103600083015261359481613558565b9050919050565b7f4552433732313a20617070726f766520746f2063616c6c657200000000000000600082015250565b60006135d16019836127be565b91506135dc8261359b565b602082019050919050565b60006020820190508181036000830152613600816135c4565b9050919050565b7f4552433732313a207472616e7366657220746f206e6f6e20455243373231526560008201527f63656976657220696d706c656d656e7465720000000000000000000000000000602082015250565b60006136636032836127be565b915061366e82613607565b604082019050919050565b6000602082019050818103600083015261369281613656565b9050919050565b600081905092915050565b60006136af826127b3565b6136b98185613699565b93506136c98185602086016127cf565b80840191505092915050565b60006136e182856136a4565b91506136ed82846136a4565b91508190509392505050565b7f45524337323155524953746f726167653a2055524920736574206f66206e6f6e60008201527f6578697374656e7420746f6b656e000000000000000000000000000000000000602082015250565b6000613755602e836127be565b9150613760826136f9565b604082019050919050565b6000602082019050818103600083015261378481613748565b9050919050565b60008190508160005260206000209050919050565b60006020601f8301049050919050565b600082821b905092915050565b6000600883026137ed7fffffffffffffffffffffffffffffffffffffffffffffffffffffffffffffffff826137b0565b6137f786836137b0565b95508019841693508086168417925050509392505050565b6000819050919050565b600061383461382f61382a84612865565b61380f565b612865565b9050919050565b6000819050919050565b61384e83613819565b61386261385a8261383b565b8484546137bd565b825550505050565b600090565b61387761386a565b613882818484613845565b505050565b5b818110156138a65761389b60008261386f565b600181019050613888565b5050565b601f8211156138eb576138bc8161378b565b6138c5846137a0565b810160208510156138d4578190505b6138e86138e0856137a0565b830182613887565b50505b505050565b600082821c905092915050565b600061390e600019846008026138f0565b1980831691505092915050565b600061392783836138fd565b9150826002028217905092915050565b613940826127b3565b67ffffffffffffffff81111561395957613958612b90565b5b6139638254612eaa565b61396e8282856138aa565b600060209050601f8311600181146139a1576000841561398f578287015190505b613999858261391b565b865550613a01565b601f1984166139af8661378b565b60005b828110156139d7578489015182556001820191506020850194506020810190506139b2565b868310156139f457848901516139f0601f8916826138fd565b8355505b6001600288020188555050505b505050505050565b7f5061757361626c653a206e6f7420706175736564000000000000000000000000600082015250565b6000613a3f6014836127be565b9150613a4a82613a09565b602082019050919050565b60006020820190508181036000830152613a6e81613a32565b9050919050565b7f5061757361626c653a2070617573656400000000000000000000000000000000600082015250565b6000613aab6010836127be565b9150613ab682613a75565b602082019050919050565b60006020820190508181036000830152613ada81613a9e565b9050919050565b600081519050919050565b600082825260208201905092915050565b6000613b0882613ae1565b613b128185613aec565b9350613b228185602086016127cf565b613b2b816127f9565b840191505092915050565b6000608082019050613b4b60008301876128fa565b613b5860208301866128fa565b613b656040830185612990565b8181036060830152613b778184613afd565b905095945050505050565b600081519050613b9181612724565b92915050565b600060208284031215613bad57613bac6126ee565b5b6000613bbb84828501613b82565b91505092915050565b6000613bcf82612865565b91507fffffffffffffffffffffffffffffffffffffffffffffffffffffffffffffffff8203613c0157613c00613498565b5b600182019050919050565b7f4e487b7100000000000000000000000000000000000000000000000000000000600052601260045260246000fd5b6000613c4682612865565b9150613c5183612865565b925082613c6157613c60613c0c565b5b828204905092915050565b6000613c7782612865565b9150613c8283612865565b925082613c9257613c91613c0c565b5b828206905092915050565b7f4552433732313a206d696e7420746f20746865207a65726f2061646472657373600082015250565b6000613cd36020836127be565b9150613cde82613c9d565b602082019050919050565b60006020820190508181036000830152613d0281613cc6565b9050919050565b7f4552433732313a20746f6b656e20616c7265616479206d696e74656400000000600082015250565b6000613d3f601c836127be565b9150613d4a82613d09565b602082019050919050565b60006020820190508181036000830152613d6e81613d32565b9050919050565b7f4e487b7100000000000000000000000000000000000000000000000000000000600052603160045260246000fdfea26469706673582212204fc9c61838ad4f48d0d35008340c804bc30360f8e22ed5efed8782d305a7009a64736f6c63430008100033",
  "immutableReferences": {},
  "source": "// SPDX-License-Identifier: MIT\npragma solidity ^0.8.4;\n\nimport \"@openzeppelin/contracts/token/ERC721/ERC721.sol\";\n// import \"@openzeppelin/contracts/token/ERC721/extensions/ERC721Enumerable.sol\";\nimport \"@openzeppelin/contracts/token/ERC721/extensions/ERC721URIStorage.sol\";\nimport \"@openzeppelin/contracts/security/Pausable.sol\";\nimport \"@openzeppelin/contracts/access/Ownable.sol\";\nimport \"@openzeppelin/contracts/token/ERC721/extensions/ERC721Burnable.sol\";\nimport \"@openzeppelin/contracts/utils/Counters.sol\";\n\nimport \"./ERC721Enumerable.sol\";\n\n\ncontract MyToken is ERC721, ERC721Enumerable, ERC721URIStorage, Pausable, Ownable, ERC721Burnable {\n    using Counters for Counters.Counter;\n\n    Counters.Counter private _tokenIdCounter;\n    \n    // owned tokens by address\n    mapping(address => uint256[]) private userOwnedTokens;\n\n    uint256 private _maxSupply = 0;\n\n    constructor() ERC721(\"MyToken\", \"MTK\") {}\n\n    function pause() public onlyOwner {\n        _pause();\n    }\n\n    function unpause() public onlyOwner {\n        _unpause();\n    }\n\n    function safeMint(address to, string memory uri) public onlyOwner {\n        uint256 tokenId = _tokenIdCounter.current();\n        _tokenIdCounter.increment();\n        _safeMint(to, tokenId);\n        _setTokenURI(tokenId, uri);\n\n        uint256[] storage userTokens = userOwnedTokens[to];\n        userTokens.push(tokenId);\n        userOwnedTokens[to] = userTokens;\n        // return tokenId;\n    }\n\n    function _beforeTokenTransfer(address from, address to, uint256 tokenId)\n        internal\n        whenNotPaused\n        override(ERC721, ERC721Enumerable)\n    {\n        super._beforeTokenTransfer(from, to, tokenId);\n    }\n\n    // The following functions are overrides required by Solidity.\n\n    function _burn(uint256 tokenId) internal override(ERC721, ERC721URIStorage) {\n        super._burn(tokenId);\n    }\n\n    function tokenURI(uint256 tokenId)\n        public\n        view\n        override(ERC721, ERC721URIStorage)\n        returns (string memory)\n    {\n        return super.tokenURI(tokenId);\n    }\n\n    function supportsInterface(bytes4 interfaceId)\n        public\n        view\n        override(ERC721, ERC721Enumerable)\n        returns (bool)\n    {\n        return super.supportsInterface(interfaceId);\n    }\n\n\n    function getOwnedTokenIds(address from) public onlyOwner returns(uint256[] memory) {\n        return userOwnedTokens[from];\n\n        // const userTokens = _ownedTokens[from];\n        // const rv = [];\n        // uint256[] memory ret = new uint256[](addressRegistryCount);\n        // for ()\n\n    }\n\n\n\n}\n\n\n\n\n\n\n\n",
  "sourcePath": "/Users/rahul/Documents/main/personal_learning_projects/fundamentals/smart_contract_tut/contracts/MyToken.sol",
  "compiler": {
    "name": "solc",
    "version": "0.8.16+commit.07a7930e.Emscripten.clang"
  },
  "schemaVersion": "3.4.10",
  "updatedAt": "2022-09-16T12:48:22.873Z",
  "networkType": "ethereum",
  "devdoc": {
    "kind": "dev",
    "methods": {
      "approve(address,uint256)": {
        "details": "See {IERC721-approve}."
      },
      "balanceOf(address)": {
        "details": "See {IERC721-balanceOf}."
      },
      "burn(uint256)": {
        "details": "Burns `tokenId`. See {ERC721-_burn}. Requirements: - The caller must own `tokenId` or be an approved operator."
      },
      "getApproved(uint256)": {
        "details": "See {IERC721-getApproved}."
      },
      "isApprovedForAll(address,address)": {
        "details": "See {IERC721-isApprovedForAll}."
      },
      "name()": {
        "details": "See {IERC721Metadata-name}."
      },
      "owner()": {
        "details": "Returns the address of the current owner."
      },
      "ownerOf(uint256)": {
        "details": "See {IERC721-ownerOf}."
      },
      "paused()": {
        "details": "Returns true if the contract is paused, and false otherwise."
      },
      "renounceOwnership()": {
        "details": "Leaves the contract without owner. It will not be possible to call `onlyOwner` functions anymore. Can only be called by the current owner. NOTE: Renouncing ownership will leave the contract without an owner, thereby removing any functionality that is only available to the owner."
      },
      "safeTransferFrom(address,address,uint256)": {
        "details": "See {IERC721-safeTransferFrom}."
      },
      "safeTransferFrom(address,address,uint256,bytes)": {
        "details": "See {IERC721-safeTransferFrom}."
      },
      "setApprovalForAll(address,bool)": {
        "details": "See {IERC721-setApprovalForAll}."
      },
      "symbol()": {
        "details": "See {IERC721Metadata-symbol}."
      },
      "tokenByIndex(uint256)": {
        "details": "See {IERC721Enumerable-tokenByIndex}."
      },
      "tokenOfOwnerByIndex(address,uint256)": {
        "details": "See {IERC721Enumerable-tokenOfOwnerByIndex}."
      },
      "totalSupply()": {
        "details": "See {IERC721Enumerable-totalSupply}."
      },
      "transferFrom(address,address,uint256)": {
        "details": "See {IERC721-transferFrom}."
      },
      "transferOwnership(address)": {
        "details": "Transfers ownership of the contract to a new account (`newOwner`). Can only be called by the current owner."
      }
    },
    "version": 1
  },
  "userdoc": {
    "kind": "user",
    "methods": {},
    "version": 1
  }
}